{"abi":[{"type":"constructor","inputs":[{"name":"_energyToken","type":"address","internalType":"address"}],"stateMutability":"nonpayable"},{"type":"function","name":"CREATION_COST","inputs":[],"outputs":[{"name":"","type":"uint256","internalType":"uint256"}],"stateMutability":"view"},{"type":"function","name":"MAX_MEMBERS","inputs":[],"outputs":[{"name":"","type":"uint256","internalType":"uint256"}],"stateMutability":"view"},{"type":"function","name":"MAX_NAME_LENGTH","inputs":[],"outputs":[{"name":"","type":"uint256","internalType":"uint256"}],"stateMutability":"view"},{"type":"function","name":"MIN_NAME_LENGTH","inputs":[],"outputs":[{"name":"","type":"uint256","internalType":"uint256"}],"stateMutability":"view"},{"type":"function","name":"allianceNameTaken","inputs":[{"name":"","type":"string","internalType":"string"}],"outputs":[{"name":"","type":"bool","internalType":"bool"}],"stateMutability":"view"},{"type":"function","name":"alliances","inputs":[{"name":"","type":"uint256","internalType":"uint256"}],"outputs":[{"name":"id","type":"uint256","internalType":"uint256"},{"name":"name","type":"string","internalType":"string"},{"name":"leader","type":"address","internalType":"address"},{"name":"createdAt","type":"uint256","internalType":"uint256"},{"name":"exists","type":"bool","internalType":"bool"}],"stateMutability":"view"},{"type":"function","name":"createAlliance","inputs":[{"name":"name","type":"string","internalType":"string"}],"outputs":[{"name":"","type":"uint256","internalType":"uint256"}],"stateMutability":"nonpayable"},{"type":"function","name":"disbandAlliance","inputs":[],"outputs":[],"stateMutability":"nonpayable"},{"type":"function","name":"energyToken","inputs":[],"outputs":[{"name":"","type":"address","internalType":"contract EnergyToken"}],"stateMutability":"view"},{"type":"function","name":"getAllianceMembers","inputs":[{"name":"allianceId","type":"uint256","internalType":"uint256"}],"outputs":[{"name":"","type":"address[]","internalType":"address[]"}],"stateMutability":"view"},{"type":"function","name":"getPlayerAlliance","inputs":[{"name":"player","type":"address","internalType":"address"}],"outputs":[{"name":"","type":"tuple","internalType":"struct Alliance.AllianceData","components":[{"name":"id","type":"uint256","internalType":"uint256"},{"name":"name","type":"string","internalType":"string"},{"name":"leader","type":"address","internalType":"address"},{"name":"members","type":"address[]","internalType":"address[]"},{"name":"createdAt","type":"uint256","internalType":"uint256"},{"name":"exists","type":"bool","internalType":"bool"}]}],"stateMutability":"view"},{"type":"function","name":"isInAlliance","inputs":[{"name":"player","type":"address","internalType":"address"}],"outputs":[{"name":"","type":"bool","internalType":"bool"}],"stateMutability":"view"},{"type":"function","name":"joinAlliance","inputs":[{"name":"allianceId","type":"uint256","internalType":"uint256"}],"outputs":[],"stateMutability":"nonpayable"},{"type":"function","name":"kickMember","inputs":[{"name":"member","type":"address","internalType":"address"}],"outputs":[],"stateMutability":"nonpayable"},{"type":"function","name":"leaveAlliance","inputs":[],"outputs":[],"stateMutability":"nonpayable"},{"type":"function","name":"owner","inputs":[],"outputs":[{"name":"","type":"address","internalType":"address"}],"stateMutability":"view"},{"type":"function","name":"pause","inputs":[],"outputs":[],"stateMutability":"nonpayable"},{"type":"function","name":"paused","inputs":[],"outputs":[{"name":"","type":"bool","internalType":"bool"}],"stateMutability":"view"},{"type":"function","name":"playerAlliance","inputs":[{"name":"","type":"address","internalType":"address"}],"outputs":[{"name":"","type":"uint256","internalType":"uint256"}],"stateMutability":"view"},{"type":"function","name":"renounceOwnership","inputs":[],"outputs":[],"stateMutability":"nonpayable"},{"type":"function","name":"transferLeadership","inputs":[{"name":"newLeader","type":"address","internalType":"address"}],"outputs":[],"stateMutability":"nonpayable"},{"type":"function","name":"transferOwnership","inputs":[{"name":"newOwner","type":"address","internalType":"address"}],"outputs":[],"stateMutability":"nonpayable"},{"type":"function","name":"unpause","inputs":[],"outputs":[],"stateMutability":"nonpayable"},{"type":"function","name":"updateEnergyToken","inputs":[{"name":"_energyToken","type":"address","internalType":"address"}],"outputs":[],"stateMutability":"nonpayable"},{"type":"event","name":"AllianceCreated","inputs":[{"name":"allianceId","type":"uint256","indexed":true,"internalType":"uint256"},{"name":"name","type":"string","indexed":false,"internalType":"string"},{"name":"leader","type":"address","indexed":true,"internalType":"address"}],"anonymous":false},{"type":"event","name":"AllianceDisbanded","inputs":[{"name":"allianceId","type":"uint256","indexed":true,"internalType":"uint256"}],"anonymous":false},{"type":"event","name":"LeadershipTransferred","inputs":[{"name":"allianceId","type":"uint256","indexed":true,"internalType":"uint256"},{"name":"oldLeader","type":"address","indexed":true,"internalType":"address"},{"name":"newLeader","type":"address","indexed":true,"internalType":"address"}],"anonymous":false},{"type":"event","name":"MemberJoined","inputs":[{"name":"allianceId","type":"uint256","indexed":true,"internalType":"uint256"},{"name":"member","type":"address","indexed":true,"internalType":"address"}],"anonymous":false},{"type":"event","name":"MemberKicked","inputs":[{"name":"allianceId","type":"uint256","indexed":true,"internalType":"uint256"},{"name":"member","type":"address","indexed":true,"internalType":"address"},{"name":"kicker","type":"address","indexed":true,"internalType":"address"}],"anonymous":false},{"type":"event","name":"MemberLeft","inputs":[{"name":"allianceId","type":"uint256","indexed":true,"internalType":"uint256"},{"name":"member","type":"address","indexed":true,"internalType":"address"}],"anonymous":false},{"type":"event","name":"OwnershipTransferred","inputs":[{"name":"previousOwner","type":"address","indexed":true,"internalType":"address"},{"name":"newOwner","type":"address","indexed":true,"internalType":"address"}],"anonymous":false},{"type":"event","name":"Paused","inputs":[{"name":"account","type":"address","indexed":false,"internalType":"address"}],"anonymous":false},{"type":"event","name":"Unpaused","inputs":[{"name":"account","type":"address","indexed":false,"internalType":"address"}],"anonymous":false},{"type":"error","name":"EnforcedPause","inputs":[]},{"type":"error","name":"ExpectedPause","inputs":[]},{"type":"error","name":"OwnableInvalidOwner","inputs":[{"name":"owner","type":"address","internalType":"address"}]},{"type":"error","name":"OwnableUnauthorizedAccount","inputs":[{"name":"account","type":"address","internalType":"address"}]}],"bytecode":{"object":"0x608060405234801561000f575f80fd5b5060405162001ab638038062001ab6833981016040819052610030916100d6565b338061005557604051631e4fbdf760e01b81525f600482015260240160405180910390fd5b61005e81610087565b50600180546001600160a01b0319166001600160a01b0392909216919091178155600255610103565b5f80546001600160a01b038381166001600160a01b0319831681178455604051919092169283917f8be0079c531659141344cd1fd0a4f28419497f9722a3daafe3b4186f6b6457e09190a35050565b5f602082840312156100e6575f80fd5b81516001600160a01b03811681146100fc575f80fd5b9392505050565b6119a580620001115f395ff3fe608060405234801561000f575f80fd5b5060043610610153575f3560e01c80638456cb59116100bf578063dabd761d11610079578063dabd761d146102d6578063e3c219b4146102de578063e9777f2914610308578063ea0e35b114610336578063eab9096b1461033e578063f2fde38b1461034e575f80fd5b80638456cb591461026c57806386074985146102745780638da5cb5b1461027c5780639aa5729e1461028c578063c08dd257146102b0578063d16a8fe7146102c3575f80fd5b80634ec7fb81116101105780634ec7fb81146101e257806350cfeddd1461020d5780635c975abb14610215578063715018a614610232578063753f9bd91461023a5780638335630f14610259575f80fd5b80630ff14e29146101575780631443ec431461017d57806321d691a01461019d5780633f4ba83a146101b2578063431effb6146101ba57806343bbcd61146101da575b5f80fd5b61016a610165366004611455565b610361565b6040519081526020015b60405180910390f35b61019061018b366004611500565b6106d8565b6040516101749190611517565b6101b06101ab366004611563565b61079e565b005b6101b0610810565b6101cd6101c8366004611563565b610822565b60405161017491906115dd565b6101b0610a09565b6001546101f5906001600160a01b031681565b6040516001600160a01b039091168152602001610174565b61016a600381565b5f54600160a01b900460ff165b6040519015158152602001610174565b6101b0610b3a565b61016a610248366004611563565b60046020525f908152604090205481565b6101b0610267366004611500565b610b4b565b6101b0610cae565b61016a601e81565b5f546001600160a01b03166101f5565b61029f61029a366004611500565b610cbe565b604051610174959493929190611686565b6101b06102be366004611563565b610d81565b6101b06102d1366004611563565b610eae565b6101b061101c565b6102226102ec366004611563565b6001600160a01b03165f90815260046020526040902054151590565b610222610316366004611455565b805160208183018101805160058252928201919093012091525460ff1681565b61016a603281565b61016a683635c9adc5dea0000081565b6101b061035c366004611563565b611116565b5f61036a611153565b6003825110156103b25760405162461bcd60e51b815260206004820152600e60248201526d13985b59481d1bdbc81cda1bdc9d60921b60448201526064015b60405180910390fd5b601e825111156103f45760405162461bcd60e51b815260206004820152600d60248201526c4e616d6520746f6f206c6f6e6760981b60448201526064016103a9565b60058260405161040491906116c6565b9081526040519081900360200190205460ff16156104595760405162461bcd60e51b81526020600482015260126024820152712730b6b29030b63932b0b23c903a30b5b2b760711b60448201526064016103a9565b335f90815260046020526040902054156104ae5760405162461bcd60e51b8152602060048201526016602482015275416c726561647920696e20616e20616c6c69616e636560501b60448201526064016103a9565b600154604051635020794960e11b8152336004820152683635c9adc5dea00000602482015260606044820152600f60648201526e43726561746520616c6c69616e636560881b60848201526001600160a01b039091169063a040f2929060a4015f604051808303815f87803b158015610525575f80fd5b505af1158015610537573d5f803e3d5ffd5b5050600280545f935091508261054c836116f5565b909155506040805160018082528183019092529192505f91906020808301908036833701905050905033815f815181106105885761058861170d565b6001600160a01b039092166020928302919091018201526040805160c081018252848152808301878152338284015260608201859052426080830152600160a083018190525f8781526003909552929093208151815592519092918201906105f090826117a5565b5060408201516002820180546001600160a01b0319166001600160a01b03909216919091179055606082015180516106329160038401916020909101906113ca565b506080820151600482015560a0909101516005918201805460ff1916911515919091179055604051600191906106699087906116c6565b9081526040805160209281900383018120805460ff191694151594909417909355335f818152600490935291208490559083907f5b0faf06588f64cc97803cd92df368b5407f74aeac8a1806d18250c06612db24906106c9908890611865565b60405180910390a35092915050565b5f8181526003602052604090206005015460609060ff166107345760405162461bcd60e51b8152602060048201526016602482015275105b1b1a585b98d948191bd95cdb89dd08195e1a5cdd60521b60448201526064016103a9565b5f828152600360208181526040928390209091018054835181840281018401909452808452909183018282801561079257602002820191905f5260205f20905b81546001600160a01b03168152600190910190602001808311610774575b50505050509050919050565b6107a661117d565b6001600160a01b0381166107ee5760405162461bcd60e51b815260206004820152600f60248201526e496e76616c6964206164647265737360881b60448201526064016103a9565b600180546001600160a01b0319166001600160a01b0392909216919091179055565b61081861117d565b6108206111a9565b565b6108626040518060c001604052805f8152602001606081526020015f6001600160a01b03168152602001606081526020015f81526020015f151581525090565b6001600160a01b0382165f90815260046020526040812054908190036108c35760405162461bcd60e51b8152602060048201526016602482015275506c61796572206e6f7420696e20616c6c69616e636560501b60448201526064016103a9565b60035f8281526020019081526020015f206040518060c00160405290815f82015481526020016001820180546108f890611721565b80601f016020809104026020016040519081016040528092919081815260200182805461092490611721565b801561096f5780601f106109465761010080835404028352916020019161096f565b820191905f5260205f20905b81548152906001019060200180831161095257829003601f168201915b505050918352505060028201546001600160a01b031660208083019190915260038301805460408051828502810185018252828152940193928301828280156109df57602002820191905f5260205f20905b81546001600160a01b031681526001909101906020018083116109c1575b50505091835250506004820154602082015260059091015460ff1615156040909101529392505050565b610a11611153565b335f9081526004602052604081205490819003610a405760405162461bcd60e51b81526004016103a990611877565b5f81815260036020526040902060028101546001600160a01b03163314610a795760405162461bcd60e51b81526004016103a9906118a3565b5f5b6003820154811015610acc575f60045f846003018481548110610aa057610aa061170d565b5f9182526020808320909101546001600160a01b03168352820192909252604001902055600101610a7b565b506005808201805460ff191690556040515f9190610aee9060018501906118d0565b908152604051908190036020018120805492151560ff199093169290921790915582907f7d3f5383079897e574ca5421b3203bced1717dedda8168770cb89a43c573f62c905f90a25050565b610b4261117d565b6108205f6111fd565b610b53611153565b5f818152600360205260409020600581015460ff16610bad5760405162461bcd60e51b8152602060048201526016602482015275105b1b1a585b98d948191bd95cdb89dd08195e1a5cdd60521b60448201526064016103a9565b335f9081526004602052604090205415610c025760405162461bcd60e51b8152602060048201526016602482015275416c726561647920696e20616e20616c6c69616e636560501b60448201526064016103a9565b6003810154603211610c465760405162461bcd60e51b815260206004820152600d60248201526c105b1b1a585b98d948199d5b1b609a1b60448201526064016103a9565b6003810180546001810182555f918252602080832090910180546001600160a01b031916339081179091558083526004909152604080832085905551909184917f78da64a590c3052953ad9e0a5546bbf12bb68ae7634e3fb2a774e22a8c6557c19190a35050565b610cb661117d565b61082061124c565b60036020525f908152604090208054600182018054919291610cdf90611721565b80601f0160208091040260200160405190810160405280929190818152602001828054610d0b90611721565b8015610d565780601f10610d2d57610100808354040283529160200191610d56565b820191905f5260205f20905b815481529060010190602001808311610d3957829003601f168201915b505050506002830154600484015460059094015492936001600160a01b039091169290915060ff1685565b610d89611153565b335f9081526004602052604081205490819003610db85760405162461bcd60e51b81526004016103a990611877565b5f81815260036020526040902060028101546001600160a01b03163314610df15760405162461bcd60e51b81526004016103a9906118a3565b6001600160a01b0383165f908152600460205260409020548214610e575760405162461bcd60e51b815260206004820152601a60248201527f4e6577206c6561646572206e6f7420696e20616c6c69616e636500000000000060448201526064016103a9565b6002810180546001600160a01b038581166001600160a01b03198316811790935560405191169190829085907fbea2deff7648d4984a6119d7b2dfd0922be6908c9ce5c6a7e51ba3b4605e31e9905f90a450505050565b610eb6611153565b335f9081526004602052604081205490819003610ee55760405162461bcd60e51b81526004016103a990611877565b5f81815260036020526040902060028101546001600160a01b03163314610f1e5760405162461bcd60e51b81526004016103a9906118a3565b6001600160a01b0383165f908152600460205260409020548214610f7d5760405162461bcd60e51b81526020600482015260166024820152754d656d626572206e6f7420696e20616c6c69616e636560501b60448201526064016103a9565b336001600160a01b03841603610fc85760405162461bcd60e51b815260206004820152601060248201526f21b0b73737ba1035b4b1b59039b2b63360811b60448201526064016103a9565b610fd2828461128e565b6001600160a01b0383165f818152600460205260408082208290555133929185917fb1f01a02a8f1db2d3030068fa3ca6da2c69f4a7cd77965568d5e177185989a459190a4505050565b611024611153565b335f90815260046020526040812054908190036110535760405162461bcd60e51b81526004016103a990611877565b5f8181526003602052604090206002810154336001600160a01b03909116036110d05760405162461bcd60e51b815260206004820152602960248201527f4c65616465722063616e6e6f74206c6561766520287472616e73666572206f726044820152682064697362616e642960b81b60648201526084016103a9565b6110da823361128e565b335f818152600460205260408082208290555184917fa8dcd974806422d974a6135dd981896f1694065789986f7ba7947fbb4759e89991a35050565b61111e61117d565b6001600160a01b03811661114757604051631e4fbdf760e01b81525f60048201526024016103a9565b611150816111fd565b50565b5f54600160a01b900460ff16156108205760405163d93c066560e01b815260040160405180910390fd5b5f546001600160a01b031633146108205760405163118cdaa760e01b81523360048201526024016103a9565b6111b16113a1565b5f805460ff60a01b191690557f5db9ee0a495bf2e6ff9c91a7834c1ba4fdd244a5e8aa4e537bd38aeae4b073aa335b6040516001600160a01b03909116815260200160405180910390a1565b5f80546001600160a01b038381166001600160a01b0319831681178455604051919092169283917f8be0079c531659141344cd1fd0a4f28419497f9722a3daafe3b4186f6b6457e09190a35050565b611254611153565b5f805460ff60a01b1916600160a01b1790557f62e78cea01bee320cd4e420270b5ea74000d11b0c9f74754ebdbfc544b05a2586111e03390565b5f828152600360205260408120905b600382015481101561139b57826001600160a01b03168260030182815481106112c8576112c861170d565b5f918252602090912001546001600160a01b031603611393576003820180546112f390600190611942565b815481106113035761130361170d565b5f918252602090912001546003830180546001600160a01b0390921691839081106113305761133061170d565b905f5260205f20015f6101000a8154816001600160a01b0302191690836001600160a01b031602179055508160030180548061136e5761136e61195b565b5f8281526020902081015f1990810180546001600160a01b031916905501905561139b565b60010161129d565b50505050565b5f54600160a01b900460ff1661082057604051638dfc202b60e01b815260040160405180910390fd5b828054828255905f5260205f2090810192821561141d579160200282015b8281111561141d57825182546001600160a01b0319166001600160a01b039091161782556020909201916001909101906113e8565b5061142992915061142d565b5090565b5b80821115611429575f815560010161142e565b634e487b7160e01b5f52604160045260245ffd5b5f60208284031215611465575f80fd5b813567ffffffffffffffff8082111561147c575f80fd5b818401915084601f83011261148f575f80fd5b8135818111156114a1576114a1611441565b604051601f8201601f19908116603f011681019083821181831017156114c9576114c9611441565b816040528281528760208487010111156114e1575f80fd5b826020860160208301375f928101602001929092525095945050505050565b5f60208284031215611510575f80fd5b5035919050565b602080825282518282018190525f9190848201906040850190845b818110156115575783516001600160a01b031683529284019291840191600101611532565b50909695505050505050565b5f60208284031215611573575f80fd5b81356001600160a01b0381168114611589575f80fd5b9392505050565b5f5b838110156115aa578181015183820152602001611592565b50505f910152565b5f81518084526115c9816020860160208601611590565b601f01601f19169290920160200192915050565b5f60208083528351818401528084015160c0604085015261160160e08501826115b2565b60408601516001600160a01b03908116606087810191909152870151868303601f19016080880152805180845290850193505f928501905b8084101561165b57845183168252938501936001939093019290850190611639565b50608088015160a088015260a0880151945061167b60c088018615159052565b979650505050505050565b85815260a060208201525f61169e60a08301876115b2565b6001600160a01b03959095166040830152506060810192909252151560809091015292915050565b5f82516116d7818460208701611590565b9190910192915050565b634e487b7160e01b5f52601160045260245ffd5b5f60018201611706576117066116e1565b5060010190565b634e487b7160e01b5f52603260045260245ffd5b600181811c9082168061173557607f821691505b60208210810361175357634e487b7160e01b5f52602260045260245ffd5b50919050565b601f8211156117a057805f5260205f20601f840160051c8101602085101561177e5750805b601f840160051c820191505b8181101561179d575f815560010161178a565b50505b505050565b815167ffffffffffffffff8111156117bf576117bf611441565b6117d3816117cd8454611721565b84611759565b602080601f831160018114611806575f84156117ef5750858301515b5f19600386901b1c1916600185901b17855561185d565b5f85815260208120601f198616915b8281101561183457888601518255948401946001909101908401611815565b508582101561185157878501515f19600388901b60f8161c191681555b505060018460011b0185555b505050505050565b602081525f61158960208301846115b2565b6020808252601290820152714e6f7420696e20616e20616c6c69616e636560701b604082015260600190565b6020808252601390820152722737ba1030b63634b0b731b2903632b0b232b960691b604082015260600190565b5f8083546118dd81611721565b600182811680156118f5576001811461190a57611936565b60ff1984168752821515830287019450611936565b875f526020805f205f5b8581101561192d5781548a820152908401908201611914565b50505082870194505b50929695505050505050565b81810381811115611955576119556116e1565b92915050565b634e487b7160e01b5f52603160045260245ffdfea26469706673582212205916e894b866e7d6859be1236cade9836b8b1eb636a030d0be293c80ab36df1364736f6c63430008180033","linkReferences":{}},"methodIdentifiers":{"CREATION_COST()":"eab9096b","MAX_MEMBERS()":"ea0e35b1","MAX_NAME_LENGTH()":"86074985","MIN_NAME_LENGTH()":"50cfeddd","allianceNameTaken(string)":"e9777f29","alliances(uint256)":"9aa5729e","createAlliance(string)":"0ff14e29","disbandAlliance()":"43bbcd61","energyToken()":"4ec7fb81","getAllianceMembers(uint256)":"1443ec43","getPlayerAlliance(address)":"431effb6","isInAlliance(address)":"e3c219b4","joinAlliance(uint256)":"8335630f","kickMember(address)":"d16a8fe7","leaveAlliance()":"dabd761d","owner()":"8da5cb5b","pause()":"8456cb59","paused()":"5c975abb","playerAlliance(address)":"753f9bd9","renounceOwnership()":"715018a6","transferLeadership(address)":"c08dd257","transferOwnership(address)":"f2fde38b","unpause()":"3f4ba83a","updateEnergyToken(address)":"21d691a0"},"id":22}