{"abi":[{"type":"constructor","inputs":[{"name":"_territoryNFT","type":"address","internalType":"address"},{"name":"_energyToken","type":"address","internalType":"address"}],"stateMutability":"nonpayable"},{"type":"function","name":"MAX_BUILDINGS_PER_TERRITORY","inputs":[],"outputs":[{"name":"","type":"uint256","internalType":"uint256"}],"stateMutability":"view"},{"type":"function","name":"UPGRADE_MULTIPLIER","inputs":[],"outputs":[{"name":"","type":"uint256","internalType":"uint256"}],"stateMutability":"view"},{"type":"function","name":"buildBuilding","inputs":[{"name":"territoryId","type":"uint256","internalType":"uint256"},{"name":"buildingType","type":"uint8","internalType":"enum Building.BuildingType"}],"outputs":[{"name":"","type":"uint256","internalType":"uint256"}],"stateMutability":"nonpayable"},{"type":"function","name":"buildingStats","inputs":[{"name":"","type":"uint8","internalType":"enum Building.BuildingType"}],"outputs":[{"name":"baseCost","type":"uint256","internalType":"uint256"},{"name":"energyGeneration","type":"uint256","internalType":"uint256"},{"name":"defense","type":"uint256","internalType":"uint256"},{"name":"storageCapacity","type":"uint256","internalType":"uint256"},{"name":"maxLevel","type":"uint8","internalType":"uint8"}],"stateMutability":"view"},{"type":"function","name":"buildings","inputs":[{"name":"","type":"uint256","internalType":"uint256"}],"outputs":[{"name":"id","type":"uint256","internalType":"uint256"},{"name":"territoryId","type":"uint256","internalType":"uint256"},{"name":"buildingType","type":"uint8","internalType":"enum Building.BuildingType"},{"name":"level","type":"uint8","internalType":"uint8"},{"name":"builtAt","type":"uint256","internalType":"uint256"},{"name":"lastUpgraded","type":"uint256","internalType":"uint256"},{"name":"exists","type":"bool","internalType":"bool"}],"stateMutability":"view"},{"type":"function","name":"calculateEnergyGeneration","inputs":[{"name":"territoryId","type":"uint256","internalType":"uint256"}],"outputs":[{"name":"","type":"uint256","internalType":"uint256"}],"stateMutability":"view"},{"type":"function","name":"calculateTerritoryDefense","inputs":[{"name":"territoryId","type":"uint256","internalType":"uint256"}],"outputs":[{"name":"","type":"uint256","internalType":"uint256"}],"stateMutability":"view"},{"type":"function","name":"collectEnergy","inputs":[{"name":"territoryId","type":"uint256","internalType":"uint256"}],"outputs":[],"stateMutability":"nonpayable"},{"type":"function","name":"energyToken","inputs":[],"outputs":[{"name":"","type":"address","internalType":"contract EnergyToken"}],"stateMutability":"view"},{"type":"function","name":"getTerritoryBuildings","inputs":[{"name":"territoryId","type":"uint256","internalType":"uint256"}],"outputs":[{"name":"","type":"tuple[]","internalType":"struct Building.BuildingData[]","components":[{"name":"id","type":"uint256","internalType":"uint256"},{"name":"territoryId","type":"uint256","internalType":"uint256"},{"name":"buildingType","type":"uint8","internalType":"enum Building.BuildingType"},{"name":"level","type":"uint8","internalType":"uint8"},{"name":"builtAt","type":"uint256","internalType":"uint256"},{"name":"lastUpgraded","type":"uint256","internalType":"uint256"},{"name":"exists","type":"bool","internalType":"bool"}]}],"stateMutability":"view"},{"type":"function","name":"getUpgradeCost","inputs":[{"name":"buildingId","type":"uint256","internalType":"uint256"}],"outputs":[{"name":"","type":"uint256","internalType":"uint256"}],"stateMutability":"view"},{"type":"function","name":"owner","inputs":[],"outputs":[{"name":"","type":"address","internalType":"address"}],"stateMutability":"view"},{"type":"function","name":"pause","inputs":[],"outputs":[],"stateMutability":"nonpayable"},{"type":"function","name":"paused","inputs":[],"outputs":[{"name":"","type":"bool","internalType":"bool"}],"stateMutability":"view"},{"type":"function","name":"renounceOwnership","inputs":[],"outputs":[],"stateMutability":"nonpayable"},{"type":"function","name":"territoryBuildings","inputs":[{"name":"","type":"uint256","internalType":"uint256"},{"name":"","type":"uint256","internalType":"uint256"}],"outputs":[{"name":"","type":"uint256","internalType":"uint256"}],"stateMutability":"view"},{"type":"function","name":"territoryNFT","inputs":[],"outputs":[{"name":"","type":"address","internalType":"contract TerritoryNFT"}],"stateMutability":"view"},{"type":"function","name":"transferOwnership","inputs":[{"name":"newOwner","type":"address","internalType":"address"}],"outputs":[],"stateMutability":"nonpayable"},{"type":"function","name":"unpause","inputs":[],"outputs":[],"stateMutability":"nonpayable"},{"type":"function","name":"updateContracts","inputs":[{"name":"_territoryNFT","type":"address","internalType":"address"},{"name":"_energyToken","type":"address","internalType":"address"}],"outputs":[],"stateMutability":"nonpayable"},{"type":"function","name":"upgradeBuilding","inputs":[{"name":"buildingId","type":"uint256","internalType":"uint256"}],"outputs":[],"stateMutability":"nonpayable"},{"type":"event","name":"BuildingBuilt","inputs":[{"name":"buildingId","type":"uint256","indexed":true,"internalType":"uint256"},{"name":"territoryId","type":"uint256","indexed":true,"internalType":"uint256"},{"name":"owner","type":"address","indexed":false,"internalType":"address"},{"name":"buildingType","type":"uint8","indexed":false,"internalType":"enum Building.BuildingType"}],"anonymous":false},{"type":"event","name":"BuildingDestroyed","inputs":[{"name":"buildingId","type":"uint256","indexed":true,"internalType":"uint256"}],"anonymous":false},{"type":"event","name":"BuildingUpgraded","inputs":[{"name":"buildingId","type":"uint256","indexed":true,"internalType":"uint256"},{"name":"newLevel","type":"uint8","indexed":false,"internalType":"uint8"}],"anonymous":false},{"type":"event","name":"EnergyGenerated","inputs":[{"name":"territoryId","type":"uint256","indexed":true,"internalType":"uint256"},{"name":"owner","type":"address","indexed":true,"internalType":"address"},{"name":"amount","type":"uint256","indexed":false,"internalType":"uint256"}],"anonymous":false},{"type":"event","name":"OwnershipTransferred","inputs":[{"name":"previousOwner","type":"address","indexed":true,"internalType":"address"},{"name":"newOwner","type":"address","indexed":true,"internalType":"address"}],"anonymous":false},{"type":"event","name":"Paused","inputs":[{"name":"account","type":"address","indexed":false,"internalType":"address"}],"anonymous":false},{"type":"event","name":"Unpaused","inputs":[{"name":"account","type":"address","indexed":false,"internalType":"address"}],"anonymous":false},{"type":"error","name":"EnforcedPause","inputs":[]},{"type":"error","name":"ExpectedPause","inputs":[]},{"type":"error","name":"OwnableInvalidOwner","inputs":[{"name":"owner","type":"address","internalType":"address"}]},{"type":"error","name":"OwnableUnauthorizedAccount","inputs":[{"name":"account","type":"address","internalType":"address"}]}],"bytecode":{"object":"0x608060405234801562000010575f80fd5b506040516200220738038062002207833981016040819052620000339162000656565b33806200005957604051631e4fbdf760e01b81525f600482015260240160405180910390fd5b6200006481620000a6565b50600180546001600160a01b038085166001600160a01b031992831617835560028054918516919092161790556003556200009e620000f5565b5050620006a0565b5f80546001600160a01b038381166001600160a01b0319831681178455604051919092169283917f8be0079c531659141344cd1fd0a4f28419497f9722a3daafe3b4186f6b6457e09190a35050565b6040805160a0808201835268056bc75e2d631000008252678ac7230489e8000060208084019182525f8486018181526060808701838152600a6080808a0182815286805260068089529a517f54cdd369e4e8a8515e52ca72ec816c2101831ad1f18bf44102ed171459c9b4f85597517f54cdd369e4e8a8515e52ca72ec816c2101831ad1f18bf44102ed171459c9b4f95593517f54cdd369e4e8a8515e52ca72ec816c2101831ad1f18bf44102ed171459c9b4fa5590517f54cdd369e4e8a8515e52ca72ec816c2101831ad1f18bf44102ed171459c9b4fb5594517f54cdd369e4e8a8515e52ca72ec816c2101831ad1f18bf44102ed171459c9b4fc805460ff92831660ff199182161790915589518089018b52680d8d726b7177a80000815268015af1d78b58c40000818801908152818c018781528286018881528388018b815260018a528d8b5293517f3e5fec24aa4dc4e5aee2e025e51e1392c72a2500577559fae9665c6d52bd6a315591517f3e5fec24aa4dc4e5aee2e025e51e1392c72a2500577559fae9665c6d52bd6a3255517f3e5fec24aa4dc4e5aee2e025e51e1392c72a2500577559fae9665c6d52bd6a3355517f3e5fec24aa4dc4e5aee2e025e51e1392c72a2500577559fae9665c6d52bd6a3455517f3e5fec24aa4dc4e5aee2e025e51e1392c72a2500577559fae9665c6d52bd6a35805491841691831691909117905589518089018b52681b1ae4d6e2ef50000081526802b5e3af16b1880000818801908152818c018781528286018881528388019a8b52600289528c8a5292517f8819ef417987f8ae7a81f42cdfb18815282fe989326fbff903d13cf0e03ace295590517f8819ef417987f8ae7a81f42cdfb18815282fe989326fbff903d13cf0e03ace2a55517f8819ef417987f8ae7a81f42cdfb18815282fe989326fbff903d13cf0e03ace2b55517f8819ef417987f8ae7a81f42cdfb18815282fe989326fbff903d13cf0e03ace2c5595517f8819ef417987f8ae7a81f42cdfb18815282fe989326fbff903d13cf0e03ace2d8054881691831691909117905588518088018a52681043561a882930000081528086018581526032828c019081528285018781526008848801908152600389528c8a5293517f75f96ab15d697e93042dc45b5c896c4b27e89bb6eaf39475c5c371cb2513f7d25591517f75f96ab15d697e93042dc45b5c896c4b27e89bb6eaf39475c5c371cb2513f7d355517f75f96ab15d697e93042dc45b5c896c4b27e89bb6eaf39475c5c371cb2513f7d455517f75f96ab15d697e93042dc45b5c896c4b27e89bb6eaf39475c5c371cb2513f7d555517f75f96ab15d697e93042dc45b5c896c4b27e89bb6eaf39475c5c371cb2513f7d68054909716911617909455865194850187526815af1d78b58c400000855291840181905260649584019590955290820184905260059082015291600460058111156200052c576200052c6200068c565b81526020019081526020015f205f820151815f01556020820151816001015560408201518160020155606082015181600301556080820151816004015f6101000a81548160ff021916908360ff1602179055509050506040518060a00160405280680821ab0d441498000081526020015f81526020015f8152602001683635c9adc5dea000008152602001600f60ff1681525060065f600580811115620005d757620005d76200068c565b6005811115620005eb57620005eb6200068c565b815260208082019290925260409081015f20835181559183015160018301558201516002820155606082015160038201556080909101516004909101805460ff191660ff909216919091179055565b80516001600160a01b038116811462000651575f80fd5b919050565b5f806040838503121562000668575f80fd5b62000673836200063a565b915062000683602084016200063a565b90509250929050565b634e487b7160e01b5f52602160045260245ffd5b611b5980620006ae5f395ff3fe608060405234801561000f575f80fd5b5060043610610132575f3560e01c8063715018a6116100b4578063b98a5b7111610079578063b98a5b711461030f578063c1b14a4314610322578063d245ffa014610335578063e692c49f1461033d578063f2fde38b14610350578063ff329e7c14610363575f80fd5b8063715018a6146102d45780637d1aa67a146102dc5780638456cb59146102e45780638da5cb5b146102ec57806399c4ccc7146102fc575f80fd5b80634c96a062116100fa5780634c96a0621461020e5780634ec7fb811461027257806354fd3cd0146102855780635c975abb146102985780636eabc2dd146102b4575f80fd5b806311e5d7de1461013657806316c5c59a1461015c57806322f73972146101c65780633e95d42e146101f15780633f4ba83a14610204575b5f80fd5b6101496101443660046117bc565b610376565b6040519081526020015b60405180910390f35b61019b61016a3660046117ef565b60066020525f9081526040902080546001820154600283015460038401546004909401549293919290919060ff1685565b60408051958652602086019490945292840191909152606083015260ff16608082015260a001610153565b6001546101d9906001600160a01b031681565b6040516001600160a01b039091168152602001610153565b6101496101ff36600461180f565b6103a1565b61020c61073a565b005b61025f61021c366004611839565b600460208190525f91825260409091208054600182015460028301546003840154948401546005909401549294919360ff80831694610100909304811693921687565b6040516101539796959493929190611884565b6002546101d9906001600160a01b031681565b61020c610293366004611839565b61074c565b5f54600160a01b900460ff166040519015158152602001610153565b6102c76102c2366004611839565b610b6a565b60405161015391906118c8565b61020c610d0b565b610149609681565b61020c610d1c565b5f546001600160a01b03166101d9565b61014961030a366004611839565b610d2c565b61020c61031d366004611839565b610efb565b610149610330366004611839565b6111e9565b610149600581565b61020c61034b36600461196b565b6113ce565b61020c61035e3660046119a2565b611430565b610149610371366004611839565b61146d565b6005602052815f5260405f20818154811061038f575f80fd5b905f5260205f20015f91509150505481565b5f6103aa6115db565b6001546040516331a9108f60e11b81526004810185905233916001600160a01b031690636352211e90602401602060405180830381865afa1580156103f1573d5f803e3d5ffd5b505050506040513d601f19601f8201168201806040525081019061041591906119bd565b6001600160a01b0316146104445760405162461bcd60e51b815260040161043b906119d8565b60405180910390fd5b5f838152600560208190526040909120541061049a5760405162461bcd60e51b815260206004820152601560248201527413585e08189d5a5b191a5b99dcc81c995858da1959605a1b604482015260640161043b565b5f60065f8460058111156104b0576104b0611850565b60058111156104c1576104c1611850565b815260208082019290925260409081015f20815160a0810183528154808252600183015494820194909452600282015492810192909252600381015460608301526004015460ff16608082015291506105545760405162461bcd60e51b8152602060048201526015602482015274496e76616c6964206275696c64696e67207479706560581b604482015260640161043b565b6002548151604051635020794960e11b8152336004820152602481019190915260606044820152600e60648201526d4275696c64206275696c64696e6760901b60848201526001600160a01b039091169063a040f2929060a4015f604051808303815f87803b1580156105c5575f80fd5b505af11580156105d7573d5f803e3d5ffd5b5050600380545f93509150826105ec83611a19565b9190505590506040518060e0016040528082815260200186815260200185600581111561061b5761061b611850565b815260016020808301829052426040808501829052606085019190915260809093018290525f85815260048252839020845181559084015181830155918301516002830180549192909160ff19169083600581111561067c5761067c611850565b0217905550606082015160028201805461ff00191661010060ff909316929092029190911790556080820151600382015560a0820151600482015560c0909101516005918201805460ff19169115159190911790555f8681526020918252604080822080546001810182559083529290912090910182905551859082907f75c1505f4b9dc268235751edb173165c01163bc4d2c904132fa0fa3e7f691369906107289033908990611a31565b60405180910390a39150505b92915050565b610742611605565b61074a611631565b565b6107546115db565b6001546040516331a9108f60e11b81526004810183905233916001600160a01b031690636352211e90602401602060405180830381865afa15801561079b573d5f803e3d5ffd5b505050506040513d601f19601f820116820180604052508101906107bf91906119bd565b6001600160a01b0316146107e55760405162461bcd60e51b815260040161043b906119d8565b5f8181526005602090815260408083208054825181850281018501909352808352919290919083018282801561083857602002820191905f5260205f20905b815481526020019060010190808311610824575b5050600154604051630fa7586b60e11b8152600481018890529495505f948594506001600160a01b039091169250631f4eb0d69150602401608060405180830381865afa15801561088b573d5f803e3d5ffd5b505050506040513d601f19601f820116820180604052508101906108af9190611a4e565b93505050505f81426108c19190611a81565b90505f5b8451811015610a65575f60045f8784815181106108e4576108e4611a94565b602002602001015181526020019081526020015f206040518060e00160405290815f820154815260200160018201548152602001600282015f9054906101000a900460ff16600581111561093a5761093a611850565b600581111561094b5761094b611850565b8152600282015460ff610100909104811660208301526003830154604083015260048301546060830152600590920154909116151560809091015260c081015190915015610a5c575f60065f836040015160058111156109ad576109ad611850565b60058111156109be576109be611850565b815260208082019290925260409081015f20815160a081018352815481526001820154938101849052600282015492810192909252600381015460608301526004015460ff166080820152915015610a5a575f604b85846060015160ff168460200151610a2b9190611aa8565b610a359190611aa8565b610a4090600a611aa8565b610a4a9190611abf565b9050610a568188611ade565b9650505b505b506001016108c5565b508215610b6357600254604051631cac331160e31b815233600482015260248101859052604481018790526001600160a01b039091169063e5619888906064015f604051808303815f87803b158015610abc575f80fd5b505af1158015610ace573d5f803e3d5ffd5b505060015460405163b9533b0560e01b8152600481018990526001600160a01b03909116925063b9533b0591506024015f604051808303815f87803b158015610b15575f80fd5b505af1158015610b27573d5f803e3d5ffd5b50506040518581523392508791507f41e2b744dafa300366c40b6f72f6f8e222f34f6d79189b3f53bf2895fb8c4e719060200160405180910390a35b5050505050565b5f818152600560209081526040808320805482518185028101850190935280835260609493830182828015610bbc57602002820191905f5260205f20905b815481526020019060010190808311610ba8575b505050505090505f815167ffffffffffffffff811115610bde57610bde611af1565b604051908082528060200260200182016040528015610c1757816020015b610c04611772565b815260200190600190039081610bfc5790505b5090505f5b8251811015610d035760045f848381518110610c3a57610c3a611a94565b602002602001015181526020019081526020015f206040518060e00160405290815f820154815260200160018201548152602001600282015f9054906101000a900460ff166005811115610c9057610c90611850565b6005811115610ca157610ca1611850565b8152600282015460ff61010090910481166020830152600383015460408301526004830154606083015260059092015490911615156080909101528251839083908110610cf057610cf0611a94565b6020908102919091010152600101610c1c565b509392505050565b610d13611605565b61074a5f611685565b610d24611605565b61074a6116d4565b5f81815260056020908152604080832080548251818502810185019093528083528493830182828015610d7c57602002820191905f5260205f20905b815481526020019060010190808311610d68575b505050505090505f805b8251811015610d03575f60045f858481518110610da557610da5611a94565b602002602001015181526020019081526020015f206040518060e00160405290815f820154815260200160018201548152602001600282015f9054906101000a900460ff166005811115610dfb57610dfb611850565b6005811115610e0c57610e0c611850565b8152600282015460ff610100909104811660208301526003830154604083015260048301546060830152600590920154909116151560809091015260c081015190915015610ef2575f60065f83604001516005811115610e6e57610e6e611850565b6005811115610e7f57610e7f611850565b815260208082019290925260409081015f20815160a081018352815481526001820154938101939093526002810154918301829052600381015460608085019190915260049091015460ff908116608085015290850151929350610ee4921690611aa8565b610eee9085611ade565b9350505b50600101610d86565b610f036115db565b5f818152600460205260409020600581015460ff16610f5d5760405162461bcd60e51b8152602060048201526016602482015275109d5a5b191a5b99c8191bd95cdb89dd08195e1a5cdd60521b604482015260640161043b565b60018054908201546040516331a9108f60e11b8152600481019190915233916001600160a01b031690636352211e90602401602060405180830381865afa158015610faa573d5f803e3d5ffd5b505050506040513d601f19601f82011682018060405250810190610fce91906119bd565b6001600160a01b031614610ff45760405162461bcd60e51b815260040161043b906119d8565b60028101545f90600690829060ff16600581111561101457611014611850565b600581111561102557611025611850565b815260208082019290925260409081015f20815160a0810183528154815260018201549381019390935260028082015492840192909252600381015460608401526004015460ff9081166080840181905291850154929350610100909204909116106110c75760405162461bcd60e51b815260206004820152601160248201527013585e081b195d995b081c995858da1959607a1b604482015260640161043b565b805160028301545f916110e191610100900460ff16611716565b600254604051635020794960e11b81523360048201526024810183905260606044820152601060648201526f55706772616465206275696c64696e6760801b60848201529192506001600160a01b03169063a040f2929060a4015f604051808303815f87803b158015611152575f80fd5b505af1158015611164573d5f803e3d5ffd5b50505050600283018054610100900460ff1690600161118283611b05565b825460ff91821661010093840a9081029083021990911617909255426004870155600286015460405191900490911681528591507f5a350aea9d9aecb1da2327fdf34baf31c28e2d312f5e65586fbe87cf3cbbc3d79060200160405180910390a250505050565b5f8181526005602090815260408083208054825181850281018501909352808352849383018282801561123957602002820191905f5260205f20905b815481526020019060010190808311611225575b505050505090505f805b82518110156113b9575f60045f85848151811061126257611262611a94565b602002602001015181526020019081526020015f206040518060e00160405290815f820154815260200160018201548152602001600282015f9054906101000a900460ff1660058111156112b8576112b8611850565b60058111156112c9576112c9611850565b8152600282015460ff610100909104811660208301526003830154604083015260048301546060830152600590920154909116151560809091015260c0810151909150156113b0575f60065f8360400151600581111561132b5761132b611850565b600581111561133c5761133c611850565b815260208082019290925260409081015f20815160a081018352815481526001820154938101849052600282015492810192909252600381015460608084019190915260049091015460ff9081166080840152908501519193506113a292911690611aa8565b6113ac9085611ade565b9350505b50600101611243565b506113c6816101e0611aa8565b949350505050565b6113d6611605565b6001600160a01b0382161561140157600180546001600160a01b0319166001600160a01b0384161790555b6001600160a01b0381161561142c57600280546001600160a01b0319166001600160a01b0383161790555b5050565b611438611605565b6001600160a01b03811661146157604051631e4fbdf760e01b81525f600482015260240161043b565b61146a81611685565b50565b5f818152600460209081526040808320815160e08101835281548152600182015493810193909352600281015484939283019060ff1660058111156114b4576114b4611850565b60058111156114c5576114c5611850565b8152600282015460ff610100909104811660208301526003830154604083015260048301546060830152600590920154909116151560809091015260c081015190915061154d5760405162461bcd60e51b8152602060048201526016602482015275109d5a5b191a5b99c8191bd95cdb89dd08195e1a5cdd60521b604482015260640161043b565b5f60065f8360400151600581111561156757611567611850565b600581111561157857611578611850565b815260208082019290925260409081015f20815160a0810183528154808252600183015494820194909452600282015492810192909252600381015460608084019190915260049091015460ff1660808301528401519092506113c69190611716565b5f54600160a01b900460ff161561074a5760405163d93c066560e01b815260040160405180910390fd5b5f546001600160a01b0316331461074a5760405163118cdaa760e01b815233600482015260240161043b565b611639611749565b5f805460ff60a01b191690557f5db9ee0a495bf2e6ff9c91a7834c1ba4fdd244a5e8aa4e537bd38aeae4b073aa335b6040516001600160a01b03909116815260200160405180910390a1565b5f80546001600160a01b038381166001600160a01b0319831681178455604051919092169283917f8be0079c531659141344cd1fd0a4f28419497f9722a3daafe3b4186f6b6457e09190a35050565b6116dc6115db565b5f805460ff60a01b1916600160a01b1790557f62e78cea01bee320cd4e420270b5ea74000d11b0c9f74754ebdbfc544b05a2586116683390565b5f82815b8360ff168160ff161015610d03576064611735609684611aa8565b61173f9190611abf565b915060010161171a565b5f54600160a01b900460ff1661074a57604051638dfc202b60e01b815260040160405180910390fd5b6040518060e001604052805f81526020015f81526020015f600581111561179b5761179b611850565b81525f60208201819052604082018190526060820181905260809091015290565b5f80604083850312156117cd575f80fd5b50508035926020909101359150565b8035600681106117ea575f80fd5b919050565b5f602082840312156117ff575f80fd5b611808826117dc565b9392505050565b5f8060408385031215611820575f80fd5b82359150611830602084016117dc565b90509250929050565b5f60208284031215611849575f80fd5b5035919050565b634e487b7160e01b5f52602160045260245ffd5b6006811061188057634e487b7160e01b5f52602160045260245ffd5b9052565b8781526020810187905260e0810161189f6040830188611864565b60ff861660608301528460808301528360a083015282151560c083015298975050505050505050565b602080825282518282018190525f919060409081850190868401855b8281101561194a5781518051855286810151878601528581015161190a87870182611864565b5060608181015160ff16908601526080808201519086015260a0808201519086015260c09081015115159085015260e090930192908501906001016118e4565b5091979650505050505050565b6001600160a01b038116811461146a575f80fd5b5f806040838503121561197c575f80fd5b823561198781611957565b9150602083013561199781611957565b809150509250929050565b5f602082840312156119b2575f80fd5b813561180881611957565b5f602082840312156119cd575f80fd5b815161180881611957565b6020808252601390820152722737ba103a32b93934ba37b93c9037bbb732b960691b604082015260600190565b634e487b7160e01b5f52601160045260245ffd5b5f60018201611a2a57611a2a611a05565b5060010190565b6001600160a01b0383168152604081016118086020830184611864565b5f805f8060808587031215611a61575f80fd5b505082516020840151604085015160609095015191969095509092509050565b8181038181111561073457610734611a05565b634e487b7160e01b5f52603260045260245ffd5b808202811582820484141761073457610734611a05565b5f82611ad957634e487b7160e01b5f52601260045260245ffd5b500490565b8082018082111561073457610734611a05565b634e487b7160e01b5f52604160045260245ffd5b5f60ff821660ff8103611b1a57611b1a611a05565b6001019291505056fea2646970667358221220210f830bdd38bd68b2b12802a42779c194411c44ce02cb69b5a3d1952a46810764736f6c63430008180033","linkReferences":{}},"methodIdentifiers":{"MAX_BUILDINGS_PER_TERRITORY()":"d245ffa0","UPGRADE_MULTIPLIER()":"7d1aa67a","buildBuilding(uint256,uint8)":"3e95d42e","buildingStats(uint8)":"16c5c59a","buildings(uint256)":"4c96a062","calculateEnergyGeneration(uint256)":"c1b14a43","calculateTerritoryDefense(uint256)":"99c4ccc7","collectEnergy(uint256)":"54fd3cd0","energyToken()":"4ec7fb81","getTerritoryBuildings(uint256)":"6eabc2dd","getUpgradeCost(uint256)":"ff329e7c","owner()":"8da5cb5b","pause()":"8456cb59","paused()":"5c975abb","renounceOwnership()":"715018a6","territoryBuildings(uint256,uint256)":"11e5d7de","territoryNFT()":"22f73972","transferOwnership(address)":"f2fde38b","unpause()":"3f4ba83a","updateContracts(address,address)":"e692c49f","upgradeBuilding(uint256)":"b98a5b71"},"id":24}