{"abi":[{"type":"constructor","inputs":[{"name":"_territoryNFT","type":"address","internalType":"address"},{"name":"_energyToken","type":"address","internalType":"address"},{"name":"_buildingContract","type":"address","internalType":"address"}],"stateMutability":"nonpayable"},{"type":"function","name":"ATTACK_COOLDOWN","inputs":[],"outputs":[{"name":"","type":"uint256","internalType":"uint256"}],"stateMutability":"view"},{"type":"function","name":"ATTACK_COST","inputs":[],"outputs":[{"name":"","type":"uint256","internalType":"uint256"}],"stateMutability":"view"},{"type":"function","name":"ATTACK_MULTIPLIER","inputs":[],"outputs":[{"name":"","type":"uint256","internalType":"uint256"}],"stateMutability":"view"},{"type":"function","name":"DEFENSE_COOLDOWN","inputs":[],"outputs":[{"name":"","type":"uint256","internalType":"uint256"}],"stateMutability":"view"},{"type":"function","name":"DEFENSE_MULTIPLIER","inputs":[],"outputs":[{"name":"","type":"uint256","internalType":"uint256"}],"stateMutability":"view"},{"type":"function","name":"LOOT_PERCENTAGE","inputs":[],"outputs":[{"name":"","type":"uint256","internalType":"uint256"}],"stateMutability":"view"},{"type":"function","name":"MAX_ATTACK_DISTANCE","inputs":[],"outputs":[{"name":"","type":"uint256","internalType":"uint256"}],"stateMutability":"view"},{"type":"function","name":"attack","inputs":[{"name":"attackerTerritoryId","type":"uint256","internalType":"uint256"},{"name":"defenderTerritoryId","type":"uint256","internalType":"uint256"}],"outputs":[{"name":"","type":"uint256","internalType":"uint256"}],"stateMutability":"nonpayable"},{"type":"function","name":"battles","inputs":[{"name":"","type":"uint256","internalType":"uint256"}],"outputs":[{"name":"id","type":"uint256","internalType":"uint256"},{"name":"attacker","type":"address","internalType":"address"},{"name":"defender","type":"address","internalType":"address"},{"name":"attackerTerritoryId","type":"uint256","internalType":"uint256"},{"name":"defenderTerritoryId","type":"uint256","internalType":"uint256"},{"name":"attackPower","type":"uint256","internalType":"uint256"},{"name":"defensePower","type":"uint256","internalType":"uint256"},{"name":"result","type":"uint8","internalType":"enum Battle.BattleResult"},{"name":"timestamp","type":"uint256","internalType":"uint256"},{"name":"loot","type":"uint256","internalType":"uint256"}],"stateMutability":"view"},{"type":"function","name":"buildingContract","inputs":[],"outputs":[{"name":"","type":"address","internalType":"contract Building"}],"stateMutability":"view"},{"type":"function","name":"canAttack","inputs":[{"name":"attacker","type":"address","internalType":"address"}],"outputs":[{"name":"","type":"bool","internalType":"bool"},{"name":"","type":"uint256","internalType":"uint256"}],"stateMutability":"view"},{"type":"function","name":"canDefend","inputs":[{"name":"territoryId","type":"uint256","internalType":"uint256"}],"outputs":[{"name":"","type":"bool","internalType":"bool"},{"name":"","type":"uint256","internalType":"uint256"}],"stateMutability":"view"},{"type":"function","name":"energyToken","inputs":[],"outputs":[{"name":"","type":"address","internalType":"contract EnergyToken"}],"stateMutability":"view"},{"type":"function","name":"getBattleHistory","inputs":[{"name":"player","type":"address","internalType":"address"},{"name":"limit","type":"uint256","internalType":"uint256"}],"outputs":[{"name":"","type":"tuple[]","internalType":"struct Battle.BattleData[]","components":[{"name":"id","type":"uint256","internalType":"uint256"},{"name":"attacker","type":"address","internalType":"address"},{"name":"defender","type":"address","internalType":"address"},{"name":"attackerTerritoryId","type":"uint256","internalType":"uint256"},{"name":"defenderTerritoryId","type":"uint256","internalType":"uint256"},{"name":"attackPower","type":"uint256","internalType":"uint256"},{"name":"defensePower","type":"uint256","internalType":"uint256"},{"name":"result","type":"uint8","internalType":"enum Battle.BattleResult"},{"name":"timestamp","type":"uint256","internalType":"uint256"},{"name":"loot","type":"uint256","internalType":"uint256"}]}],"stateMutability":"view"},{"type":"function","name":"lastAttackTime","inputs":[{"name":"","type":"address","internalType":"address"}],"outputs":[{"name":"","type":"uint256","internalType":"uint256"}],"stateMutability":"view"},{"type":"function","name":"owner","inputs":[],"outputs":[{"name":"","type":"address","internalType":"address"}],"stateMutability":"view"},{"type":"function","name":"pause","inputs":[],"outputs":[],"stateMutability":"nonpayable"},{"type":"function","name":"paused","inputs":[],"outputs":[{"name":"","type":"bool","internalType":"bool"}],"stateMutability":"view"},{"type":"function","name":"renounceOwnership","inputs":[],"outputs":[],"stateMutability":"nonpayable"},{"type":"function","name":"territoryLastDefense","inputs":[{"name":"","type":"uint256","internalType":"uint256"}],"outputs":[{"name":"","type":"uint256","internalType":"uint256"}],"stateMutability":"view"},{"type":"function","name":"territoryNFT","inputs":[],"outputs":[{"name":"","type":"address","internalType":"contract TerritoryNFT"}],"stateMutability":"view"},{"type":"function","name":"transferOwnership","inputs":[{"name":"newOwner","type":"address","internalType":"address"}],"outputs":[],"stateMutability":"nonpayable"},{"type":"function","name":"unpause","inputs":[],"outputs":[],"stateMutability":"nonpayable"},{"type":"function","name":"updateContracts","inputs":[{"name":"_territoryNFT","type":"address","internalType":"address"},{"name":"_energyToken","type":"address","internalType":"address"},{"name":"_buildingContract","type":"address","internalType":"address"}],"outputs":[],"stateMutability":"nonpayable"},{"type":"event","name":"BattleInitiated","inputs":[{"name":"battleId","type":"uint256","indexed":true,"internalType":"uint256"},{"name":"attacker","type":"address","indexed":true,"internalType":"address"},{"name":"defender","type":"address","indexed":true,"internalType":"address"},{"name":"defenderTerritoryId","type":"uint256","indexed":false,"internalType":"uint256"}],"anonymous":false},{"type":"event","name":"BattleResolved","inputs":[{"name":"battleId","type":"uint256","indexed":true,"internalType":"uint256"},{"name":"result","type":"uint8","indexed":false,"internalType":"enum Battle.BattleResult"},{"name":"loot","type":"uint256","indexed":false,"internalType":"uint256"}],"anonymous":false},{"type":"event","name":"OwnershipTransferred","inputs":[{"name":"previousOwner","type":"address","indexed":true,"internalType":"address"},{"name":"newOwner","type":"address","indexed":true,"internalType":"address"}],"anonymous":false},{"type":"event","name":"Paused","inputs":[{"name":"account","type":"address","indexed":false,"internalType":"address"}],"anonymous":false},{"type":"event","name":"TerritoryConquered","inputs":[{"name":"territoryId","type":"uint256","indexed":true,"internalType":"uint256"},{"name":"oldOwner","type":"address","indexed":true,"internalType":"address"},{"name":"newOwner","type":"address","indexed":true,"internalType":"address"}],"anonymous":false},{"type":"event","name":"Unpaused","inputs":[{"name":"account","type":"address","indexed":false,"internalType":"address"}],"anonymous":false},{"type":"error","name":"EnforcedPause","inputs":[]},{"type":"error","name":"ExpectedPause","inputs":[]},{"type":"error","name":"OwnableInvalidOwner","inputs":[{"name":"owner","type":"address","internalType":"address"}]},{"type":"error","name":"OwnableUnauthorizedAccount","inputs":[{"name":"account","type":"address","internalType":"address"}]}],"bytecode":{"object":"0x608060405234801562000010575f80fd5b506040516200170538038062001705833981016040819052620000339162000115565b33806200005957604051631e4fbdf760e01b81525f600482015260240160405180910390fd5b6200006481620000aa565b50600180546001600160a01b03199081166001600160a01b039586161782556002805482169486169490941790935560038054909316919093161790556004556200015c565b5f80546001600160a01b038381166001600160a01b0319831681178455604051919092169283917f8be0079c531659141344cd1fd0a4f28419497f9722a3daafe3b4186f6b6457e09190a35050565b80516001600160a01b038116811462000110575f80fd5b919050565b5f805f6060848603121562000128575f80fd5b6200013384620000f9565b92506200014360208501620000f9565b91506200015360408501620000f9565b90509250925092565b61159b806200016a5f395ff3fe608060405234801561000f575f80fd5b5060043610610153575f3560e01c80638456cb59116100bf578063cb00b90411610079578063cb00b9041461031a578063e1fa763814610339578063e9eb4f051461034c578063ec33e5a214610355578063f193965d14610368578063f2fde38b14610388575f80fd5b80638456cb59146102d75780638a11ccab146102df5780638a56beba146102f25780638da5cb5b146102fa5780638feea7001461030a578063abc56f8114610312575f80fd5b80635e75134a116101105780635e75134a14610200578063606d2e961461021f57806361703bef146102a45780636dca4d44146102b45780636dce0fff146102c7578063715018a6146102cf575f80fd5b806322f73972146101575780632333500d146101875780633f4ba83a1461019d5780634ec7fb81146101a75780635c975abb146101ba5780635cbaa74b146101d6575b5f80fd5b60015461016a906001600160a01b031681565b6040516001600160a01b0390911681526020015b60405180910390f35b61018f600381565b60405190815260200161017e565b6101a561039b565b005b60025461016a906001600160a01b031681565b5f54600160a01b900460ff16604051901515815260200161017e565b6101e96101e4366004611241565b6103ad565b60408051921515835260208301919091520161017e565b61018f61020e36600461125c565b60076020525f908152604090205481565b61028e61022d36600461125c565b600560208190525f9182526040909120805460018201546002830154600384015460048501549585015460068601546007870154600888015460099098015496986001600160a01b0396871698969095169693959293919260ff909116918a565b60405161017e9a999897969594939291906112a7565b61018f6802b5e3af16b188000081565b6101a56102c2366004611309565b610400565b61018f601481565b6101a561048e565b6101a561049f565b6101e96102ed36600461125c565b6104af565b61018f603c81565b5f546001600160a01b031661016a565b61018f606481565b61018f607881565b61018f610328366004611241565b60066020525f908152604090205481565b61018f610347366004611351565b6104cd565b61018f61012c81565b60035461016a906001600160a01b031681565b61037b610376366004611371565b6109ec565b60405161017e919061139b565b6101a5610396366004611241565b610c38565b6103a3610c75565b6103ab610ca1565b565b6001600160a01b0381165f90815260066020526040812054819081906103d69061012c90611467565b90508042106103eb57506001935f9350915050565b5f6103f6428361147a565b9250925050915091565b610408610c75565b6001600160a01b0383161561043357600180546001600160a01b0319166001600160a01b0385161790555b6001600160a01b0382161561045e57600280546001600160a01b0319166001600160a01b0384161790555b6001600160a01b0381161561048957600380546001600160a01b0319166001600160a01b0383161790555b505050565b610496610c75565b6103ab5f610cf5565b6104a7610c75565b6103ab610d44565b5f81815260076020526040812054819081906103d690603c90611467565b5f6104d6610d86565b6001546040516331a9108f60e11b81526004810185905233916001600160a01b031690636352211e90602401602060405180830381865afa15801561051d573d5f803e3d5ffd5b505050506040513d601f19601f82011682018060405250810190610541919061148d565b6001600160a01b03161461059c5760405162461bcd60e51b815260206004820181905260248201527f4e6f74206f776e6572206f662061747461636b696e67207465727269746f727960448201526064015b60405180910390fd5b6001546040516331a9108f60e11b8152600481018490525f916001600160a01b031690636352211e90602401602060405180830381865afa1580156105e3573d5f803e3d5ffd5b505050506040513d601f19601f82011682018060405250810190610607919061148d565b90506001600160a01b03811661065f5760405162461bcd60e51b815260206004820181905260248201527f446566656e646572207465727269746f727920646f65736e27742065786973746044820152606401610593565b336001600160a01b038216036106b75760405162461bcd60e51b815260206004820152601b60248201527f43616e6e6f742061747461636b206f776e207465727269746f727900000000006044820152606401610593565b335f908152600660205260409020546106d39061012c90611467565b42101561071b5760405162461bcd60e51b815260206004820152601660248201527541747461636b20636f6f6c646f776e2061637469766560501b6044820152606401610593565b5f8381526007602052604090205461073590603c90611467565b4210156107845760405162461bcd60e51b815260206004820181905260248201527f5465727269746f727920756e64657220646566656e736520636f6f6c646f776e6044820152606401610593565b600254604051635020794960e11b81523360048201526802b5e3af16b1880000602482015260606044820152601060648201526f41747461636b207465727269746f727960801b60848201526001600160a01b039091169063a040f2929060a4015f604051808303815f87803b1580156107fc575f80fd5b505af115801561080e573d5f803e3d5ffd5b505050505f61081c85610db0565b90505f61082885610e3f565b600480549192505f91908261083c836114a8565b919050559050604051806101400160405280828152602001336001600160a01b03168152602001856001600160a01b031681526020018881526020018781526020018481526020018381526020015f600281111561089c5761089c611273565b8152426020808301919091525f60409283018190528481526005808352908390208451815591840151600180840180546001600160a01b039384166001600160a01b0319918216179091559486015160028086018054929094169190961617909155606085015160038401556080850151600484015560a08501519183019190915560c0840151600683015560e084015160078301805493949193909260ff1990911691849081111561095157610951611273565b0217905550610100820151600882015561012090910151600990910155335f81815260066020908152604080832042908190558a845260079092529182902055516001600160a01b038616919083907f44bbd1153f1b36a3354f2af50e8f8ceb7b4c95e46240e7547a0f73c322380d21906109cf908b815260200190565b60405180910390a46109e081610ebc565b93505050505b92915050565b60605f60015b60045481108015610a0257508382105b15610a71575f818152600560205260409020600101546001600160a01b0386811691161480610a4c57505f818152600560205260409020600201546001600160a01b038681169116145b15610a5f5781610a5b816114a8565b9250505b80610a69816114a8565b9150506109f2565b505f8167ffffffffffffffff811115610a8c57610a8c6114c0565b604051908082528060200260200182016040528015610ac557816020015b610ab26111c1565b815260200190600190039081610aaa5790505b5090505f806001600454610ad9919061147a565b90505b60018110158015610aec57508382105b15610c2d575f818152600560205260409020600101546001600160a01b0388811691161480610b3657505f818152600560205260409020600201546001600160a01b038881169116145b15610c1b575f818152600560208181526040928390208351610140810185528154815260018201546001600160a01b03908116938201939093526002808301549093169481019490945260038101546060850152600481015460808501529182015460a0840152600682015460c0840152600782015460e084019160ff90911690811115610bc657610bc6611273565b6002811115610bd757610bd7611273565b815260200160088201548152602001600982015481525050838381518110610c0157610c016114d4565b60200260200101819052508180610c17906114a8565b9250505b80610c25816114e8565b915050610adc565b509095945050505050565b610c40610c75565b6001600160a01b038116610c6957604051631e4fbdf760e01b81525f6004820152602401610593565b610c7281610cf5565b50565b5f546001600160a01b031633146103ab5760405163118cdaa760e01b8152336004820152602401610593565b610ca9611198565b5f805460ff60a01b191690557f5db9ee0a495bf2e6ff9c91a7834c1ba4fdd244a5e8aa4e537bd38aeae4b073aa335b6040516001600160a01b03909116815260200160405180910390a1565b5f80546001600160a01b038381166001600160a01b0319831681178455604051919092169283917f8be0079c531659141344cd1fd0a4f28419497f9722a3daafe3b4186f6b6457e09190a35050565b610d4c610d86565b5f805460ff60a01b1916600160a01b1790557f62e78cea01bee320cd4e420270b5ea74000d11b0c9f74754ebdbfc544b05a258610cd83390565b5f54600160a01b900460ff16156103ab5760405163d93c066560e01b815260040160405180910390fd5b6003546040516399c4ccc760e01b8152600481018390525f9182916001600160a01b03909116906399c4ccc790602401602060405180830381865afa158015610dfb573d5f803e3d5ffd5b505050506040513d601f19601f82011682018060405250810190610e1f91906114fd565b90506064610e2e607883611514565b610e38919061152b565b9392505050565b6003546040516399c4ccc760e01b8152600481018390525f9182916001600160a01b03909116906399c4ccc790602401602060405180830381865afa158015610e8a573d5f803e3d5ffd5b505050506040513d601f19601f82011682018060405250810190610eae91906114fd565b90506064610e2e8183611514565b5f818152600560208190526040909120600681015491810154909110156111365760078101805460ff1916600117905560028054908201546040516370a0823160e01b81526001600160a01b0391821660048201525f9291909116906370a0823190602401602060405180830381865afa158015610f3c573d5f803e3d5ffd5b505050506040513d601f19601f82011682018060405250810190610f6091906114fd565b90506064610f6f601483611514565b610f79919061152b565b6009830181905515801590610f92575081600901548110155b1561106e5760028054908301546009840154604051632770a7eb60e21b81526001600160a01b0392831660048201526024810191909152911690639dc29fac906044015f604051808303815f87803b158015610fec575f80fd5b505af1158015610ffe573d5f803e3d5ffd5b5050600254600185015460098601546040516340c10f1960e01b81526001600160a01b0392831660048201526024810191909152911692506340c10f1991506044015f604051808303815f87803b158015611057575f80fd5b505af1158015611069573d5f803e3d5ffd5b505050505b60018054600284015491840154600480860154604051632142170760e11b81526001600160a01b0395861692810192909252918416602482015260448101919091529116906342842e0e906064015f604051808303815f87803b1580156110d3575f80fd5b505af11580156110e5573d5f803e3d5ffd5b505050506001820154600283015460048401546040516001600160a01b0393841693909216917f4578e1f232539d53364acaaedd52530ae230f2b7d9b88a6b9e5333250ad13422905f90a45061114c565b60078101805460ff191660021790555f60098201555b6007810154600982015460405184927fc482994a704cb31899c36d9c3998771325a9e8b2a192259030ceee2dc29a56089261118c9260ff9092169161154a565b60405180910390a25050565b5f54600160a01b900460ff166103ab57604051638dfc202b60e01b815260040160405180910390fd5b6040518061014001604052805f81526020015f6001600160a01b031681526020015f6001600160a01b031681526020015f81526020015f81526020015f81526020015f81526020015f600281111561121b5761121b611273565b81526020015f81526020015f81525090565b6001600160a01b0381168114610c72575f80fd5b5f60208284031215611251575f80fd5b8135610e388161122d565b5f6020828403121561126c575f80fd5b5035919050565b634e487b7160e01b5f52602160045260245ffd5b600381106112a357634e487b7160e01b5f52602160045260245ffd5b9052565b8a81526001600160a01b038a8116602083015289166040820152606081018890526080810187905260a0810186905260c0810185905261014081016112ef60e0830186611287565b610100820193909352610120015298975050505050505050565b5f805f6060848603121561131b575f80fd5b83356113268161122d565b925060208401356113368161122d565b915060408401356113468161122d565b809150509250925092565b5f8060408385031215611362575f80fd5b50508035926020909101359150565b5f8060408385031215611382575f80fd5b823561138d8161122d565b946020939093013593505050565b602080825282518282018190525f919060409081850190868401855b8281101561144657815180518552868101516001600160a01b0390811688870152868201511686860152606080820151908601526080808201519086015260a0808201519086015260c0808201519086015260e08082015161141b82880182611287565b50506101008181015190860152610120908101519085015261014090930192908501906001016113b7565b5091979650505050505050565b634e487b7160e01b5f52601160045260245ffd5b808201808211156109e6576109e6611453565b818103818111156109e6576109e6611453565b5f6020828403121561149d575f80fd5b8151610e388161122d565b5f600182016114b9576114b9611453565b5060010190565b634e487b7160e01b5f52604160045260245ffd5b634e487b7160e01b5f52603260045260245ffd5b5f816114f6576114f6611453565b505f190190565b5f6020828403121561150d575f80fd5b5051919050565b80820281158282048414176109e6576109e6611453565b5f8261154557634e487b7160e01b5f52601260045260245ffd5b500490565b604081016115588285611287565b826020830152939250505056fea2646970667358221220ed66601e75b0a383731626e47bc4b9faf43b4963c71c79ffb45c59ce89c7784164736f6c63430008180033","linkReferences":{}},"methodIdentifiers":{"ATTACK_COOLDOWN()":"e9eb4f05","ATTACK_COST()":"61703bef","ATTACK_MULTIPLIER()":"abc56f81","DEFENSE_COOLDOWN()":"8a56beba","DEFENSE_MULTIPLIER()":"8feea700","LOOT_PERCENTAGE()":"6dce0fff","MAX_ATTACK_DISTANCE()":"2333500d","attack(uint256,uint256)":"e1fa7638","battles(uint256)":"606d2e96","buildingContract()":"ec33e5a2","canAttack(address)":"5cbaa74b","canDefend(uint256)":"8a11ccab","energyToken()":"4ec7fb81","getBattleHistory(address,uint256)":"f193965d","lastAttackTime(address)":"cb00b904","owner()":"8da5cb5b","pause()":"8456cb59","paused()":"5c975abb","renounceOwnership()":"715018a6","territoryLastDefense(uint256)":"5e75134a","territoryNFT()":"22f73972","transferOwnership(address)":"f2fde38b","unpause()":"3f4ba83a","updateContracts(address,address,address)":"6dca4d44"},"id":23}