{"abi":[{"type":"constructor","inputs":[],"stateMutability":"nonpayable"},{"type":"function","name":"approve","inputs":[{"name":"to","type":"address","internalType":"address"},{"name":"tokenId","type":"uint256","internalType":"uint256"}],"outputs":[],"stateMutability":"nonpayable"},{"type":"function","name":"balanceOf","inputs":[{"name":"owner","type":"address","internalType":"address"}],"outputs":[{"name":"","type":"uint256","internalType":"uint256"}],"stateMutability":"view"},{"type":"function","name":"claimTerritory","inputs":[{"name":"to","type":"address","internalType":"address"},{"name":"x","type":"int256","internalType":"int256"},{"name":"y","type":"int256","internalType":"int256"}],"outputs":[{"name":"","type":"uint256","internalType":"uint256"}],"stateMutability":"nonpayable"},{"type":"function","name":"coordinatesToTokenId","inputs":[{"name":"","type":"bytes32","internalType":"bytes32"}],"outputs":[{"name":"","type":"uint256","internalType":"uint256"}],"stateMutability":"view"},{"type":"function","name":"gameController","inputs":[],"outputs":[{"name":"","type":"address","internalType":"address"}],"stateMutability":"view"},{"type":"function","name":"getApproved","inputs":[{"name":"tokenId","type":"uint256","internalType":"uint256"}],"outputs":[{"name":"","type":"address","internalType":"address"}],"stateMutability":"view"},{"type":"function","name":"getTerritoriesByOwner","inputs":[{"name":"owner","type":"address","internalType":"address"}],"outputs":[{"name":"","type":"uint256[]","internalType":"uint256[]"}],"stateMutability":"view"},{"type":"function","name":"getTerritory","inputs":[{"name":"tokenId","type":"uint256","internalType":"uint256"}],"outputs":[{"name":"x","type":"int256","internalType":"int256"},{"name":"y","type":"int256","internalType":"int256"},{"name":"claimedAt","type":"uint256","internalType":"uint256"},{"name":"lastEnergyCollected","type":"uint256","internalType":"uint256"}],"stateMutability":"view"},{"type":"function","name":"isApprovedForAll","inputs":[{"name":"owner","type":"address","internalType":"address"},{"name":"operator","type":"address","internalType":"address"}],"outputs":[{"name":"","type":"bool","internalType":"bool"}],"stateMutability":"view"},{"type":"function","name":"isTerritoryClaimed","inputs":[{"name":"x","type":"int256","internalType":"int256"},{"name":"y","type":"int256","internalType":"int256"}],"outputs":[{"name":"","type":"bool","internalType":"bool"}],"stateMutability":"view"},{"type":"function","name":"maxTerritoriesPerPlayer","inputs":[],"outputs":[{"name":"","type":"uint256","internalType":"uint256"}],"stateMutability":"view"},{"type":"function","name":"name","inputs":[],"outputs":[{"name":"","type":"string","internalType":"string"}],"stateMutability":"view"},{"type":"function","name":"owner","inputs":[],"outputs":[{"name":"","type":"address","internalType":"address"}],"stateMutability":"view"},{"type":"function","name":"ownerOf","inputs":[{"name":"tokenId","type":"uint256","internalType":"uint256"}],"outputs":[{"name":"","type":"address","internalType":"address"}],"stateMutability":"view"},{"type":"function","name":"pause","inputs":[],"outputs":[],"stateMutability":"nonpayable"},{"type":"function","name":"paused","inputs":[],"outputs":[{"name":"","type":"bool","internalType":"bool"}],"stateMutability":"view"},{"type":"function","name":"renounceOwnership","inputs":[],"outputs":[],"stateMutability":"nonpayable"},{"type":"function","name":"safeTransferFrom","inputs":[{"name":"from","type":"address","internalType":"address"},{"name":"to","type":"address","internalType":"address"},{"name":"tokenId","type":"uint256","internalType":"uint256"}],"outputs":[],"stateMutability":"nonpayable"},{"type":"function","name":"safeTransferFrom","inputs":[{"name":"from","type":"address","internalType":"address"},{"name":"to","type":"address","internalType":"address"},{"name":"tokenId","type":"uint256","internalType":"uint256"},{"name":"data","type":"bytes","internalType":"bytes"}],"outputs":[],"stateMutability":"nonpayable"},{"type":"function","name":"setApprovalForAll","inputs":[{"name":"operator","type":"address","internalType":"address"},{"name":"approved","type":"bool","internalType":"bool"}],"outputs":[],"stateMutability":"nonpayable"},{"type":"function","name":"setGameController","inputs":[{"name":"_gameController","type":"address","internalType":"address"}],"outputs":[],"stateMutability":"nonpayable"},{"type":"function","name":"setMaxTerritoriesPerPlayer","inputs":[{"name":"_max","type":"uint256","internalType":"uint256"}],"outputs":[],"stateMutability":"nonpayable"},{"type":"function","name":"supportsInterface","inputs":[{"name":"interfaceId","type":"bytes4","internalType":"bytes4"}],"outputs":[{"name":"","type":"bool","internalType":"bool"}],"stateMutability":"view"},{"type":"function","name":"symbol","inputs":[],"outputs":[{"name":"","type":"string","internalType":"string"}],"stateMutability":"view"},{"type":"function","name":"territories","inputs":[{"name":"","type":"uint256","internalType":"uint256"}],"outputs":[{"name":"x","type":"int256","internalType":"int256"},{"name":"y","type":"int256","internalType":"int256"},{"name":"claimedAt","type":"uint256","internalType":"uint256"},{"name":"lastEnergyCollected","type":"uint256","internalType":"uint256"}],"stateMutability":"view"},{"type":"function","name":"tokenByIndex","inputs":[{"name":"index","type":"uint256","internalType":"uint256"}],"outputs":[{"name":"","type":"uint256","internalType":"uint256"}],"stateMutability":"view"},{"type":"function","name":"tokenOfOwnerByIndex","inputs":[{"name":"owner","type":"address","internalType":"address"},{"name":"index","type":"uint256","internalType":"uint256"}],"outputs":[{"name":"","type":"uint256","internalType":"uint256"}],"stateMutability":"view"},{"type":"function","name":"tokenURI","inputs":[{"name":"tokenId","type":"uint256","internalType":"uint256"}],"outputs":[{"name":"","type":"string","internalType":"string"}],"stateMutability":"view"},{"type":"function","name":"totalSupply","inputs":[],"outputs":[{"name":"","type":"uint256","internalType":"uint256"}],"stateMutability":"view"},{"type":"function","name":"transferFrom","inputs":[{"name":"from","type":"address","internalType":"address"},{"name":"to","type":"address","internalType":"address"},{"name":"tokenId","type":"uint256","internalType":"uint256"}],"outputs":[],"stateMutability":"nonpayable"},{"type":"function","name":"transferOwnership","inputs":[{"name":"newOwner","type":"address","internalType":"address"}],"outputs":[],"stateMutability":"nonpayable"},{"type":"function","name":"unpause","inputs":[],"outputs":[],"stateMutability":"nonpayable"},{"type":"function","name":"updateEnergyCollection","inputs":[{"name":"tokenId","type":"uint256","internalType":"uint256"}],"outputs":[],"stateMutability":"nonpayable"},{"type":"event","name":"Approval","inputs":[{"name":"owner","type":"address","indexed":true,"internalType":"address"},{"name":"approved","type":"address","indexed":true,"internalType":"address"},{"name":"tokenId","type":"uint256","indexed":true,"internalType":"uint256"}],"anonymous":false},{"type":"event","name":"ApprovalForAll","inputs":[{"name":"owner","type":"address","indexed":true,"internalType":"address"},{"name":"operator","type":"address","indexed":true,"internalType":"address"},{"name":"approved","type":"bool","indexed":false,"internalType":"bool"}],"anonymous":false},{"type":"event","name":"OwnershipTransferred","inputs":[{"name":"previousOwner","type":"address","indexed":true,"internalType":"address"},{"name":"newOwner","type":"address","indexed":true,"internalType":"address"}],"anonymous":false},{"type":"event","name":"Paused","inputs":[{"name":"account","type":"address","indexed":false,"internalType":"address"}],"anonymous":false},{"type":"event","name":"TerritoryClaimed","inputs":[{"name":"tokenId","type":"uint256","indexed":true,"internalType":"uint256"},{"name":"owner","type":"address","indexed":true,"internalType":"address"},{"name":"x","type":"int256","indexed":false,"internalType":"int256"},{"name":"y","type":"int256","indexed":false,"internalType":"int256"}],"anonymous":false},{"type":"event","name":"TerritoryTransferred","inputs":[{"name":"tokenId","type":"uint256","indexed":true,"internalType":"uint256"},{"name":"from","type":"address","indexed":true,"internalType":"address"},{"name":"to","type":"address","indexed":true,"internalType":"address"}],"anonymous":false},{"type":"event","name":"Transfer","inputs":[{"name":"from","type":"address","indexed":true,"internalType":"address"},{"name":"to","type":"address","indexed":true,"internalType":"address"},{"name":"tokenId","type":"uint256","indexed":true,"internalType":"uint256"}],"anonymous":false},{"type":"event","name":"Unpaused","inputs":[{"name":"account","type":"address","indexed":false,"internalType":"address"}],"anonymous":false},{"type":"error","name":"ERC721EnumerableForbiddenBatchMint","inputs":[]},{"type":"error","name":"ERC721IncorrectOwner","inputs":[{"name":"sender","type":"address","internalType":"address"},{"name":"tokenId","type":"uint256","internalType":"uint256"},{"name":"owner","type":"address","internalType":"address"}]},{"type":"error","name":"ERC721InsufficientApproval","inputs":[{"name":"operator","type":"address","internalType":"address"},{"name":"tokenId","type":"uint256","internalType":"uint256"}]},{"type":"error","name":"ERC721InvalidApprover","inputs":[{"name":"approver","type":"address","internalType":"address"}]},{"type":"error","name":"ERC721InvalidOperator","inputs":[{"name":"operator","type":"address","internalType":"address"}]},{"type":"error","name":"ERC721InvalidOwner","inputs":[{"name":"owner","type":"address","internalType":"address"}]},{"type":"error","name":"ERC721InvalidReceiver","inputs":[{"name":"receiver","type":"address","internalType":"address"}]},{"type":"error","name":"ERC721InvalidSender","inputs":[{"name":"sender","type":"address","internalType":"address"}]},{"type":"error","name":"ERC721NonexistentToken","inputs":[{"name":"tokenId","type":"uint256","internalType":"uint256"}]},{"type":"error","name":"ERC721OutOfBoundsIndex","inputs":[{"name":"owner","type":"address","internalType":"address"},{"name":"index","type":"uint256","internalType":"uint256"}]},{"type":"error","name":"EnforcedPause","inputs":[]},{"type":"error","name":"ExpectedPause","inputs":[]},{"type":"error","name":"OwnableInvalidOwner","inputs":[{"name":"owner","type":"address","internalType":"address"}]},{"type":"error","name":"OwnableUnauthorizedAccount","inputs":[{"name":"account","type":"address","internalType":"address"}]}],"bytecode":{"object":"0x60806040526064600f5534801562000015575f80fd5b50336040518060400160405280601681526020017f456e6572677920436c617368205465727269746f727900000000000000000000815250604051806040016040528060038152602001621150d560ea1b815250815f9081620000799190620001bf565b506001620000888282620001bf565b5050506001600160a01b038116620000b957604051631e4fbdf760e01b81525f600482015260240160405180910390fd5b620000c481620000d0565b506001600b556200028b565b600a80546001600160a01b038381166001600160a01b0319831681179093556040519116919082907f8be0079c531659141344cd1fd0a4f28419497f9722a3daafe3b4186f6b6457e0905f90a35050565b634e487b7160e01b5f52604160045260245ffd5b600181811c908216806200014a57607f821691505b6020821081036200016957634e487b7160e01b5f52602260045260245ffd5b50919050565b601f821115620001ba57805f5260205f20601f840160051c81016020851015620001965750805b601f840160051c820191505b81811015620001b7575f8155600101620001a2565b50505b505050565b81516001600160401b03811115620001db57620001db62000121565b620001f381620001ec845462000135565b846200016f565b602080601f83116001811462000229575f8415620002115750858301515b5f19600386901b1c1916600185901b17855562000283565b5f85815260208120601f198616915b82811015620002595788860151825594840194600190910190840162000238565b50858210156200027757878501515f19600388901b60f8161c191681555b505060018460011b0185555b505050505050565b611dc280620002995f395ff3fe608060405234801561000f575f80fd5b50600436106101f2575f3560e01c80637efb75b911610114578063b88d4fde116100a9578063ed37929611610079578063ed37929614610459578063ee3a07481461046c578063f2fde38b1461048b578063f68256a81461049e578063fa283daa146104b1575f80fd5b8063b88d4fde1461040d578063b9533b0514610420578063c87b56dd14610433578063e985e9c514610446575f80fd5b8063a22cb465116100e4578063a22cb465146103b4578063a384b722146103c7578063a56d6340146103e7578063b022e085146103fa575f80fd5b80637efb75b91461035f5780638456cb59146103935780638da5cb5b1461039b57806395d89b41146103ac575f80fd5b80633f4ba83a1161018a5780635c975abb1161015a5780635c975abb1461031f5780636352211e1461033157806370a0823114610344578063715018a614610357575f80fd5b80633f4ba83a146102de57806342842e0e146102e65780634aee081a146102f95780634f6ccce71461030c575f80fd5b806318160ddd116101c557806318160ddd146102735780631f4eb0d61461028557806323b872dd146102b85780632f745c59146102cb575f80fd5b806301ffc9a7146101f657806306fdde031461021e578063081812fc14610233578063095ea7b31461025e575b5f80fd5b61020961020436600461195c565b6104ba565b60405190151581526020015b60405180910390f35b6102266104ca565b60405161021591906119c4565b6102466102413660046119d6565b610559565b6040516001600160a01b039091168152602001610215565b61027161026c366004611a08565b610580565b005b6008545b604051908152602001610215565b6102986102933660046119d6565b61058f565b604080519485526020850193909352918301526060820152608001610215565b6102716102c6366004611a30565b610654565b6102776102d9366004611a08565b6106dd565b610271610740565b6102716102f4366004611a30565b610752565b6102716103073660046119d6565b610771565b61027761031a3660046119d6565b61077e565b600a54600160a01b900460ff16610209565b61024661033f3660046119d6565b6107d3565b610277610352366004611a69565b6107dd565b610271610822565b61029861036d3660046119d6565b600c6020525f908152604090208054600182015460028301546003909301549192909184565b610271610833565b600a546001600160a01b0316610246565b610226610843565b6102716103c2366004611a82565b610852565b6103da6103d5366004611a69565b61085d565b6040516102159190611abb565b6102716103f5366004611a69565b6108f2565b610209610408366004611afe565b610964565b61027161041b366004611b32565b6109b0565b61027161042e3660046119d6565b6109c8565b6102266104413660046119d6565b610aa1565b610209610454366004611c07565b610b12565b610277610467366004611c38565b610b3f565b61027761047a3660046119d6565b600d6020525f908152604090205481565b610271610499366004611a69565b610da0565b600e54610246906001600160a01b031681565b610277600f5481565b5f6104c482610ddd565b92915050565b60605f80546104d890611c68565b80601f016020809104026020016040519081016040528092919081815260200182805461050490611c68565b801561054f5780601f106105265761010080835404028352916020019161054f565b820191905f5260205f20905b81548152906001019060200180831161053257829003601f168201915b5050505050905090565b5f61056382610e01565b505f828152600460205260409020546001600160a01b03166104c4565b61058b828233610e39565b5050565b5f808080806105b2865f908152600260205260409020546001600160a01b031690565b6001600160a01b0316036106075760405162461bcd60e51b815260206004820152601760248201527615195c9c9a5d1bdc9e48191bd95cdb89dd08195e1a5cdd604a1b60448201526064015b60405180910390fd5b5050505f91825250600c6020908152604091829020825160808101845281548082526001830154938201849052600283015494820185905260039092015460609091018190529093919291565b6001600160a01b03821661067d57604051633250574960e11b81525f60048201526024016105fe565b5f610689838333610e46565b9050836001600160a01b0316816001600160a01b0316146106d7576040516364283d7b60e01b81526001600160a01b03808616600483015260248201849052821660448201526064016105fe565b50505050565b5f6106e7836107dd565b82106107185760405163295f44f760e21b81526001600160a01b0384166004820152602481018390526044016105fe565b506001600160a01b03919091165f908152600660209081526040808320938352929052205490565b610748610ecf565b610750610efc565b565b61076c83838360405180602001604052805f8152506109b0565b505050565b610779610ecf565b600f55565b5f61078860085490565b82106107b05760405163295f44f760e21b81525f6004820152602481018390526044016105fe565b600882815481106107c3576107c3611ca0565b905f5260205f2001549050919050565b5f6104c482610e01565b5f6001600160a01b038216610807576040516322718ad960e21b81525f60048201526024016105fe565b506001600160a01b03165f9081526003602052604090205490565b61082a610ecf565b6107505f610f51565b61083b610ecf565b610750610fa2565b6060600180546104d890611c68565b61058b338383610fe5565b60605f610869836107dd565b90505f8167ffffffffffffffff81111561088557610885611b1e565b6040519080825280602002602001820160405280156108ae578160200160208202803683370190505b5090505f5b828110156108ea576108c585826106dd565b8282815181106108d7576108d7611ca0565b60209081029190910101526001016108b3565b509392505050565b6108fa610ecf565b6001600160a01b0381166109425760405162461bcd60e51b815260206004820152600f60248201526e496e76616c6964206164647265737360881b60448201526064016105fe565b600e80546001600160a01b0319166001600160a01b0392909216919091179055565b5f808383604051602001610982929190918252602082015260400190565b60408051808303601f1901815291815281516020928301205f908152600d9092529020541515949350505050565b6109bb848484610654565b6106d73385858585611083565b600e546001600160a01b03163314806109eb5750600a546001600160a01b031633145b610a2e5760405162461bcd60e51b815260206004820152601460248201527327b7363c9033b0b6b29031b7b73a3937b63632b960611b60448201526064016105fe565b5f818152600260205260409020546001600160a01b0316610a8b5760405162461bcd60e51b815260206004820152601760248201527615195c9c9a5d1bdc9e48191bd95cdb89dd08195e1a5cdd604a1b60448201526064016105fe565b5f908152600c6020526040902042600390910155565b6060610aac82610e01565b505f610ac260408051602081019091525f815290565b90505f815111610ae05760405180602001604052805f815250610b0b565b80610aea846111ab565b604051602001610afb929190611cb4565b6040516020818303038152906040525b9392505050565b6001600160a01b039182165f90815260056020908152604080832093909416825291909152205460ff1690565b5f610b4861123b565b600e546001600160a01b0316331480610b6b5750600a546001600160a01b031633145b610bb75760405162461bcd60e51b815260206004820152601e60248201527f4f6e6c792067616d6520636f6e74726f6c6c65722063616e20636c61696d000060448201526064016105fe565b6001600160a01b038416610bff5760405162461bcd60e51b815260206004820152600f60248201526e496e76616c6964206164647265737360881b60448201526064016105fe565b600f54610c0b856107dd565b10610c585760405162461bcd60e51b815260206004820152601760248201527f4d6178207465727269746f72696573207265616368656400000000000000000060448201526064016105fe565b604080516020808201869052818301859052825180830384018152606090920183528151918101919091205f818152600d9092529190205415610cdd5760405162461bcd60e51b815260206004820152601960248201527f5465727269746f727920616c726561647920636c61696d65640000000000000060448201526064016105fe565b600b80545f9182610ced83611cf6565b919050559050610cfd8682611266565b60408051608081018252868152602080820187815242838501818152606085019182525f878152600c8552868120955186559251600186015551600285015551600390930192909255848252600d81529082902083905581518781529081018690526001600160a01b0388169183917fa42af8df65c6d513df5e5eac4ca6e42929c2540de9efa6db7c6bee84b773d1fd910160405180910390a395945050505050565b610da8610ecf565b6001600160a01b038116610dd157604051631e4fbdf760e01b81525f60048201526024016105fe565b610dda81610f51565b50565b5f6001600160e01b0319821663780e9d6360e01b14806104c457506104c48261127f565b5f818152600260205260408120546001600160a01b0316806104c457604051637e27328960e01b8152600481018490526024016105fe565b61076c83838360016112ce565b5f828152600260205260408120546001600160a01b03168015801590610e7457506001600160a01b03851615155b15610ebb57846001600160a01b0316816001600160a01b0316857f039941a3b3a2a97c5fe4d7cd9c563863b3db96362d8f56ea0d06c3317b54e28660405160405180910390a45b610ec68585856113d2565b95945050505050565b600a546001600160a01b031633146107505760405163118cdaa760e01b81523360048201526024016105fe565b610f046114a5565b600a805460ff60a01b191690557f5db9ee0a495bf2e6ff9c91a7834c1ba4fdd244a5e8aa4e537bd38aeae4b073aa335b6040516001600160a01b03909116815260200160405180910390a1565b600a80546001600160a01b038381166001600160a01b0319831681179093556040519116919082907f8be0079c531659141344cd1fd0a4f28419497f9722a3daafe3b4186f6b6457e0905f90a35050565b610faa61123b565b600a805460ff60a01b1916600160a01b1790557f62e78cea01bee320cd4e420270b5ea74000d11b0c9f74754ebdbfc544b05a258610f343390565b6001600160a01b03821661101757604051630b61174360e31b81526001600160a01b03831660048201526024016105fe565b6001600160a01b038381165f81815260056020908152604080832094871680845294825291829020805460ff191686151590811790915591519182527f17307eab39ab6107e8899845ad3d59bd9653f200f220920489ca2b5937696c31910160405180910390a3505050565b6001600160a01b0383163b156111a457604051630a85bd0160e11b81526001600160a01b0384169063150b7a02906110c5908890889087908790600401611d0e565b6020604051808303815f875af19250505080156110ff575060408051601f3d908101601f191682019092526110fc91810190611d4a565b60015b611166573d80801561112c576040519150601f19603f3d011682016040523d82523d5f602084013e611131565b606091505b5080515f0361115e57604051633250574960e11b81526001600160a01b03851660048201526024016105fe565b805160208201fd5b6001600160e01b03198116630a85bd0160e11b146111a257604051633250574960e11b81526001600160a01b03851660048201526024016105fe565b505b5050505050565b60605f6111b7836114cf565b60010190505f8167ffffffffffffffff8111156111d6576111d6611b1e565b6040519080825280601f01601f191660200182016040528015611200576020820181803683370190505b5090508181016020015b5f19016f181899199a1a9b1b9c1cb0b131b232b360811b600a86061a8153600a850494508461120a57509392505050565b600a54600160a01b900460ff16156107505760405163d93c066560e01b815260040160405180910390fd5b61058b828260405180602001604052805f8152506115a6565b5f6001600160e01b031982166380ac58cd60e01b14806112af57506001600160e01b03198216635b5e139f60e01b145b806104c457506301ffc9a760e01b6001600160e01b03198316146104c4565b80806112e257506001600160a01b03821615155b156113a3575f6112f184610e01565b90506001600160a01b0383161580159061131d5750826001600160a01b0316816001600160a01b031614155b8015611330575061132e8184610b12565b155b156113595760405163a9fbf51f60e01b81526001600160a01b03841660048201526024016105fe565b81156113a15783856001600160a01b0316826001600160a01b03167f8c5be1e5ebec7d5bd14f71427d1e84f3dd0314c0f7b2291e5b200ac8c7c3b92560405160405180910390a45b505b50505f90815260046020526040902080546001600160a01b0319166001600160a01b0392909216919091179055565b5f806113df8585856115bd565b90506001600160a01b03811661143b5761143684600880545f838152600960205260408120829055600182018355919091527ff3f7a9fe364faab93b216da50a3214154f22a0a2b415b23a84c8169e8b636ee30155565b61145e565b846001600160a01b0316816001600160a01b03161461145e5761145e81856116af565b6001600160a01b03851661147a576114758461172c565b61149d565b846001600160a01b0316816001600160a01b03161461149d5761149d85856117d3565b949350505050565b600a54600160a01b900460ff1661075057604051638dfc202b60e01b815260040160405180910390fd5b5f8072184f03e93ff9f4daa797ed6e38ed64bf6a1f0160401b831061150d5772184f03e93ff9f4daa797ed6e38ed64bf6a1f0160401b830492506040015b6d04ee2d6d415b85acef81000000008310611539576d04ee2d6d415b85acef8100000000830492506020015b662386f26fc10000831061155757662386f26fc10000830492506010015b6305f5e100831061156f576305f5e100830492506008015b612710831061158357612710830492506004015b60648310611595576064830492506002015b600a83106104c45760010192915050565b6115b08383611821565b61076c335f858585611083565b5f828152600260205260408120546001600160a01b03908116908316156115e9576115e9818486611882565b6001600160a01b03811615611623576116045f855f806112ce565b6001600160a01b0381165f90815260036020526040902080545f190190555b6001600160a01b03851615611651576001600160a01b0385165f908152600360205260409020805460010190555b5f8481526002602052604080822080546001600160a01b0319166001600160a01b0389811691821790925591518793918516917fddf252ad1be2c89b69c2b068fc378daa952ba7f163c4a11628f55a4df523b3ef91a4949350505050565b5f6116b9836107dd565b5f838152600760209081526040808320546001600160a01b038816845260069092529091209192509081831461170e575f83815260208281526040808320548584528184208190558352600790915290208290555b5f938452600760209081526040808620869055938552525081205550565b6008545f9061173d90600190611d65565b5f838152600960205260408120546008805493945090928490811061176457611764611ca0565b905f5260205f2001549050806008838154811061178357611783611ca0565b5f9182526020808320909101929092558281526009909152604080822084905585825281205560088054806117ba576117ba611d78565b600190038181905f5260205f20015f9055905550505050565b5f60016117df846107dd565b6117e99190611d65565b6001600160a01b039093165f908152600660209081526040808320868452825280832085905593825260079052919091209190915550565b6001600160a01b03821661184a57604051633250574960e11b81525f60048201526024016105fe565b5f61185683835f610e46565b90506001600160a01b0381161561076c576040516339e3563760e11b81525f60048201526024016105fe565b61188d8383836118e6565b61076c576001600160a01b0383166118bb57604051637e27328960e01b8152600481018290526024016105fe565b60405163177e802f60e01b81526001600160a01b0383166004820152602481018290526044016105fe565b5f6001600160a01b0383161580159061149d5750826001600160a01b0316846001600160a01b0316148061191f575061191f8484610b12565b8061149d5750505f908152600460205260409020546001600160a01b03908116911614919050565b6001600160e01b031981168114610dda575f80fd5b5f6020828403121561196c575f80fd5b8135610b0b81611947565b5f5b83811015611991578181015183820152602001611979565b50505f910152565b5f81518084526119b0816020860160208601611977565b601f01601f19169290920160200192915050565b602081525f610b0b6020830184611999565b5f602082840312156119e6575f80fd5b5035919050565b80356001600160a01b0381168114611a03575f80fd5b919050565b5f8060408385031215611a19575f80fd5b611a22836119ed565b946020939093013593505050565b5f805f60608486031215611a42575f80fd5b611a4b846119ed565b9250611a59602085016119ed565b9150604084013590509250925092565b5f60208284031215611a79575f80fd5b610b0b826119ed565b5f8060408385031215611a93575f80fd5b611a9c836119ed565b915060208301358015158114611ab0575f80fd5b809150509250929050565b602080825282518282018190525f9190848201906040850190845b81811015611af257835183529284019291840191600101611ad6565b50909695505050505050565b5f8060408385031215611b0f575f80fd5b50508035926020909101359150565b634e487b7160e01b5f52604160045260245ffd5b5f805f8060808587031215611b45575f80fd5b611b4e856119ed565b9350611b5c602086016119ed565b925060408501359150606085013567ffffffffffffffff80821115611b7f575f80fd5b818701915087601f830112611b92575f80fd5b813581811115611ba457611ba4611b1e565b604051601f8201601f19908116603f01168101908382118183101715611bcc57611bcc611b1e565b816040528281528a6020848701011115611be4575f80fd5b826020860160208301375f60208483010152809550505050505092959194509250565b5f8060408385031215611c18575f80fd5b611c21836119ed565b9150611c2f602084016119ed565b90509250929050565b5f805f60608486031215611c4a575f80fd5b611c53846119ed565b95602085013595506040909401359392505050565b600181811c90821680611c7c57607f821691505b602082108103611c9a57634e487b7160e01b5f52602260045260245ffd5b50919050565b634e487b7160e01b5f52603260045260245ffd5b5f8351611cc5818460208801611977565b835190830190611cd9818360208801611977565b01949350505050565b634e487b7160e01b5f52601160045260245ffd5b5f60018201611d0757611d07611ce2565b5060010190565b6001600160a01b03858116825284166020820152604081018390526080606082018190525f90611d4090830184611999565b9695505050505050565b5f60208284031215611d5a575f80fd5b8151610b0b81611947565b818103818111156104c4576104c4611ce2565b634e487b7160e01b5f52603160045260245ffdfea26469706673582212206d3c4e96f0d6953e12efff4ee7e6e0faf4f44ad7072d4bfce7449fa754e506c464736f6c63430008180033","linkReferences":{}},"methodIdentifiers":{"approve(address,uint256)":"095ea7b3","balanceOf(address)":"70a08231","claimTerritory(address,int256,int256)":"ed379296","coordinatesToTokenId(bytes32)":"ee3a0748","gameController()":"f68256a8","getApproved(uint256)":"081812fc","getTerritoriesByOwner(address)":"a384b722","getTerritory(uint256)":"1f4eb0d6","isApprovedForAll(address,address)":"e985e9c5","isTerritoryClaimed(int256,int256)":"b022e085","maxTerritoriesPerPlayer()":"fa283daa","name()":"06fdde03","owner()":"8da5cb5b","ownerOf(uint256)":"6352211e","pause()":"8456cb59","paused()":"5c975abb","renounceOwnership()":"715018a6","safeTransferFrom(address,address,uint256)":"42842e0e","safeTransferFrom(address,address,uint256,bytes)":"b88d4fde","setApprovalForAll(address,bool)":"a22cb465","setGameController(address)":"a56d6340","setMaxTerritoriesPerPlayer(uint256)":"4aee081a","supportsInterface(bytes4)":"01ffc9a7","symbol()":"95d89b41","territories(uint256)":"7efb75b9","tokenByIndex(uint256)":"4f6ccce7","tokenOfOwnerByIndex(address,uint256)":"2f745c59","tokenURI(uint256)":"c87b56dd","totalSupply()":"18160ddd","transferFrom(address,address,uint256)":"23b872dd","transferOwnership(address)":"f2fde38b","unpause()":"3f4ba83a","updateEnergyCollection(uint256)":"b9533b05"},"id":45}