{"abi":[{"type":"constructor","inputs":[],"stateMutability":"nonpayable"},{"type":"function","name":"MAX_SUPPLY","inputs":[],"outputs":[{"name":"","type":"uint256","internalType":"uint256"}],"stateMutability":"view"},{"type":"function","name":"allowance","inputs":[{"name":"owner","type":"address","internalType":"address"},{"name":"spender","type":"address","internalType":"address"}],"outputs":[{"name":"","type":"uint256","internalType":"uint256"}],"stateMutability":"view"},{"type":"function","name":"approve","inputs":[{"name":"spender","type":"address","internalType":"address"},{"name":"value","type":"uint256","internalType":"uint256"}],"outputs":[{"name":"","type":"bool","internalType":"bool"}],"stateMutability":"nonpayable"},{"type":"function","name":"balanceOf","inputs":[{"name":"account","type":"address","internalType":"address"}],"outputs":[{"name":"","type":"uint256","internalType":"uint256"}],"stateMutability":"view"},{"type":"function","name":"buildingContract","inputs":[],"outputs":[{"name":"","type":"address","internalType":"address"}],"stateMutability":"view"},{"type":"function","name":"burn","inputs":[{"name":"from","type":"address","internalType":"address"},{"name":"amount","type":"uint256","internalType":"uint256"}],"outputs":[],"stateMutability":"nonpayable"},{"type":"function","name":"decimals","inputs":[],"outputs":[{"name":"","type":"uint8","internalType":"uint8"}],"stateMutability":"view"},{"type":"function","name":"gameController","inputs":[],"outputs":[{"name":"","type":"address","internalType":"address"}],"stateMutability":"view"},{"type":"function","name":"mint","inputs":[{"name":"to","type":"address","internalType":"address"},{"name":"amount","type":"uint256","internalType":"uint256"}],"outputs":[],"stateMutability":"nonpayable"},{"type":"function","name":"mintFromGeneration","inputs":[{"name":"to","type":"address","internalType":"address"},{"name":"amount","type":"uint256","internalType":"uint256"},{"name":"territoryId","type":"uint256","internalType":"uint256"}],"outputs":[],"stateMutability":"nonpayable"},{"type":"function","name":"name","inputs":[],"outputs":[{"name":"","type":"string","internalType":"string"}],"stateMutability":"view"},{"type":"function","name":"owner","inputs":[],"outputs":[{"name":"","type":"address","internalType":"address"}],"stateMutability":"view"},{"type":"function","name":"pause","inputs":[],"outputs":[],"stateMutability":"nonpayable"},{"type":"function","name":"paused","inputs":[],"outputs":[{"name":"","type":"bool","internalType":"bool"}],"stateMutability":"view"},{"type":"function","name":"renounceOwnership","inputs":[],"outputs":[],"stateMutability":"nonpayable"},{"type":"function","name":"setBuildingContract","inputs":[{"name":"_buildingContract","type":"address","internalType":"address"}],"outputs":[],"stateMutability":"nonpayable"},{"type":"function","name":"setGameController","inputs":[{"name":"_gameController","type":"address","internalType":"address"}],"outputs":[],"stateMutability":"nonpayable"},{"type":"function","name":"spendEnergy","inputs":[{"name":"from","type":"address","internalType":"address"},{"name":"amount","type":"uint256","internalType":"uint256"},{"name":"reason","type":"string","internalType":"string"}],"outputs":[],"stateMutability":"nonpayable"},{"type":"function","name":"symbol","inputs":[],"outputs":[{"name":"","type":"string","internalType":"string"}],"stateMutability":"view"},{"type":"function","name":"totalSupply","inputs":[],"outputs":[{"name":"","type":"uint256","internalType":"uint256"}],"stateMutability":"view"},{"type":"function","name":"transfer","inputs":[{"name":"to","type":"address","internalType":"address"},{"name":"value","type":"uint256","internalType":"uint256"}],"outputs":[{"name":"","type":"bool","internalType":"bool"}],"stateMutability":"nonpayable"},{"type":"function","name":"transferFrom","inputs":[{"name":"from","type":"address","internalType":"address"},{"name":"to","type":"address","internalType":"address"},{"name":"value","type":"uint256","internalType":"uint256"}],"outputs":[{"name":"","type":"bool","internalType":"bool"}],"stateMutability":"nonpayable"},{"type":"function","name":"transferOwnership","inputs":[{"name":"newOwner","type":"address","internalType":"address"}],"outputs":[],"stateMutability":"nonpayable"},{"type":"function","name":"unpause","inputs":[],"outputs":[],"stateMutability":"nonpayable"},{"type":"event","name":"Approval","inputs":[{"name":"owner","type":"address","indexed":true,"internalType":"address"},{"name":"spender","type":"address","indexed":true,"internalType":"address"},{"name":"value","type":"uint256","indexed":false,"internalType":"uint256"}],"anonymous":false},{"type":"event","name":"EnergyClaimed","inputs":[{"name":"player","type":"address","indexed":true,"internalType":"address"},{"name":"amount","type":"uint256","indexed":false,"internalType":"uint256"}],"anonymous":false},{"type":"event","name":"EnergyGenerated","inputs":[{"name":"player","type":"address","indexed":true,"internalType":"address"},{"name":"amount","type":"uint256","indexed":false,"internalType":"uint256"},{"name":"territoryId","type":"uint256","indexed":false,"internalType":"uint256"}],"anonymous":false},{"type":"event","name":"EnergySpent","inputs":[{"name":"player","type":"address","indexed":true,"internalType":"address"},{"name":"amount","type":"uint256","indexed":false,"internalType":"uint256"},{"name":"reason","type":"string","indexed":false,"internalType":"string"}],"anonymous":false},{"type":"event","name":"OwnershipTransferred","inputs":[{"name":"previousOwner","type":"address","indexed":true,"internalType":"address"},{"name":"newOwner","type":"address","indexed":true,"internalType":"address"}],"anonymous":false},{"type":"event","name":"Paused","inputs":[{"name":"account","type":"address","indexed":false,"internalType":"address"}],"anonymous":false},{"type":"event","name":"Transfer","inputs":[{"name":"from","type":"address","indexed":true,"internalType":"address"},{"name":"to","type":"address","indexed":true,"internalType":"address"},{"name":"value","type":"uint256","indexed":false,"internalType":"uint256"}],"anonymous":false},{"type":"event","name":"Unpaused","inputs":[{"name":"account","type":"address","indexed":false,"internalType":"address"}],"anonymous":false},{"type":"error","name":"ERC20InsufficientAllowance","inputs":[{"name":"spender","type":"address","internalType":"address"},{"name":"allowance","type":"uint256","internalType":"uint256"},{"name":"needed","type":"uint256","internalType":"uint256"}]},{"type":"error","name":"ERC20InsufficientBalance","inputs":[{"name":"sender","type":"address","internalType":"address"},{"name":"balance","type":"uint256","internalType":"uint256"},{"name":"needed","type":"uint256","internalType":"uint256"}]},{"type":"error","name":"ERC20InvalidApprover","inputs":[{"name":"approver","type":"address","internalType":"address"}]},{"type":"error","name":"ERC20InvalidReceiver","inputs":[{"name":"receiver","type":"address","internalType":"address"}]},{"type":"error","name":"ERC20InvalidSender","inputs":[{"name":"sender","type":"address","internalType":"address"}]},{"type":"error","name":"ERC20InvalidSpender","inputs":[{"name":"spender","type":"address","internalType":"address"}]},{"type":"error","name":"EnforcedPause","inputs":[]},{"type":"error","name":"ExpectedPause","inputs":[]},{"type":"error","name":"OwnableInvalidOwner","inputs":[{"name":"owner","type":"address","internalType":"address"}]},{"type":"error","name":"OwnableUnauthorizedAccount","inputs":[{"name":"account","type":"address","internalType":"address"}]}],"bytecode":{"object":"0x608060405234801562000010575f80fd5b50336040518060400160405280601381526020017f456e6572677920436c61736820456e657267790000000000000000000000000081525060405180604001604052806006815260200165454e4552475960d01b81525081600390816200007891906200038b565b5060046200008782826200038b565b5050506001600160a01b038116620000b957604051631e4fbdf760e01b81525f60048201526024015b60405180910390fd5b620000c481620000e1565b50620000db3369d3c21bcecceda100000062000132565b6200047d565b600580546001600160a01b038381166001600160a01b0319831681179093556040519116919082907f8be0079c531659141344cd1fd0a4f28419497f9722a3daafe3b4186f6b6457e0905f90a35050565b6001600160a01b0382166200015d5760405163ec442f0560e01b81525f6004820152602401620000b0565b6200016a5f83836200016e565b5050565b620001786200018a565b62000185838383620001bf565b505050565b6200019e600554600160a01b900460ff1690565b15620001bd5760405163d93c066560e01b815260040160405180910390fd5b565b6001600160a01b038316620001ed578060025f828254620001e1919062000457565b909155506200025f9050565b6001600160a01b0383165f9081526020819052604090205481811015620002415760405163391434e360e21b81526001600160a01b03851660048201526024810182905260448101839052606401620000b0565b6001600160a01b0384165f9081526020819052604090209082900390555b6001600160a01b0382166200027d576002805482900390556200029b565b6001600160a01b0382165f9081526020819052604090208054820190555b816001600160a01b0316836001600160a01b03167fddf252ad1be2c89b69c2b068fc378daa952ba7f163c4a11628f55a4df523b3ef83604051620002e191815260200190565b60405180910390a3505050565b634e487b7160e01b5f52604160045260245ffd5b600181811c908216806200031757607f821691505b6020821081036200033657634e487b7160e01b5f52602260045260245ffd5b50919050565b601f8211156200018557805f5260205f20601f840160051c81016020851015620003635750805b601f840160051c820191505b8181101562000384575f81556001016200036f565b5050505050565b81516001600160401b03811115620003a757620003a7620002ee565b620003bf81620003b8845462000302565b846200033c565b602080601f831160018114620003f5575f8415620003dd5750858301515b5f19600386901b1c1916600185901b1785556200044f565b5f85815260208120601f198616915b82811015620004255788860151825594840194600190910190840162000404565b50858210156200044357878501515f19600388901b60f8161c191681555b505060018460011b0185555b505050505050565b808201808211156200047757634e487b7160e01b5f52601160045260245ffd5b92915050565b6110db806200048b5f395ff3fe608060405234801561000f575f80fd5b5060043610610153575f3560e01c80638456cb59116100bf578063a9059cbb11610079578063a9059cbb146102bf578063dd62ed3e146102d2578063e56198881461030a578063ec33e5a21461031d578063f2fde38b14610330578063f68256a814610343575f80fd5b80638456cb59146102515780638da5cb5b1461025957806395d89b411461027e5780639dc29fac14610286578063a040f29214610299578063a56d6340146102ac575f80fd5b80633f4ba83a116101105780633f4ba83a146101df57806340c10f19146101e957806347e81c5f146101fc5780635c975abb1461020f57806370a0823114610221578063715018a614610249575f80fd5b806306fdde0314610157578063095ea7b31461017557806318160ddd1461019857806323b872dd146101aa578063313ce567146101bd57806332cb6b0c146101cc575b5f80fd5b61015f610356565b60405161016c9190610e1f565b60405180910390f35b610188610183366004610e53565b6103e6565b604051901515815260200161016c565b6002545b60405190815260200161016c565b6101886101b8366004610e7b565b6103ff565b6040516012815260200161016c565b61019c6b204fce5e3e2502611000000081565b6101e7610422565b005b6101e76101f7366004610e53565b610434565b6101e761020a366004610eb4565b61054f565b600554600160a01b900460ff16610188565b61019c61022f366004610eb4565b6001600160a01b03165f9081526020819052604090205490565b6101e76105c1565b6101e76105d2565b6005546001600160a01b03165b6040516001600160a01b03909116815260200161016c565b61015f6105e2565b6101e7610294366004610e53565b6105f1565b6101e76102a7366004610ee1565b610651565b6101e76102ba366004610eb4565b610760565b6101886102cd366004610e53565b6107d2565b61019c6102e0366004610fa5565b6001600160a01b039182165f90815260016020908152604080832093909416825291909152205490565b6101e7610318366004610fd6565b6107df565b600754610266906001600160a01b031681565b6101e761033e366004610eb4565b6108d6565b600654610266906001600160a01b031681565b60606003805461036590611006565b80601f016020809104026020016040519081016040528092919081815260200182805461039190611006565b80156103dc5780601f106103b3576101008083540402835291602001916103dc565b820191905f5260205f20905b8154815290600101906020018083116103bf57829003601f168201915b5050505050905090565b5f336103f3818585610913565b60019150505b92915050565b5f3361040c858285610925565b6104178585856109a1565b506001949350505050565b61042a6109fe565b610432610a2b565b565b61043c610a80565b6006546001600160a01b031633148061045f57506007546001600160a01b031633145b8061047457506005546001600160a01b031633145b6104995760405162461bcd60e51b81526004016104909061103e565b60405180910390fd5b6b204fce5e3e25026110000000816104b060025490565b6104ba9190611066565b11156104fe5760405162461bcd60e51b815260206004820152601360248201527213585e081cdd5c1c1b1e48195e18d959591959606a1b6044820152606401610490565b6105088282610aab565b604080518281525f60208201526001600160a01b038416917fec676e746bb0e50136b65be0a7fae9dde56596d0ee473aba38bd522505c5819f910160405180910390a25050565b6105576109fe565b6001600160a01b03811661059f5760405162461bcd60e51b815260206004820152600f60248201526e496e76616c6964206164647265737360881b6044820152606401610490565b600780546001600160a01b0319166001600160a01b0392909216919091179055565b6105c96109fe565b6104325f610adf565b6105da6109fe565b610432610b30565b60606004805461036590611006565b6006546001600160a01b03163314806106125750336001600160a01b038316145b8061062757506005546001600160a01b031633145b6106435760405162461bcd60e51b81526004016104909061103e565b61064d8282610b73565b5050565b610659610a80565b6006546001600160a01b031633146106aa5760405162461bcd60e51b815260206004820152601460248201527327b7363c9033b0b6b29031b7b73a3937b63632b960611b6044820152606401610490565b816106c9846001600160a01b03165f9081526020819052604090205490565b101561070e5760405162461bcd60e51b8152602060048201526014602482015273496e73756666696369656e742062616c616e636560601b6044820152606401610490565b6107188383610b73565b826001600160a01b03167ff01a799a7af8ca886807d7a25c0f66322c5f986e0cac58f6aac16462b52e601a8383604051610753929190611085565b60405180910390a2505050565b6107686109fe565b6001600160a01b0381166107b05760405162461bcd60e51b815260206004820152600f60248201526e496e76616c6964206164647265737360881b6044820152606401610490565b600680546001600160a01b0319166001600160a01b0392909216919091179055565b5f336103f38185856109a1565b6107e7610a80565b6007546001600160a01b031633148061080a57506006546001600160a01b031633145b6108265760405162461bcd60e51b81526004016104909061103e565b6b204fce5e3e250261100000008261083d60025490565b6108479190611066565b111561088b5760405162461bcd60e51b815260206004820152601360248201527213585e081cdd5c1c1b1e48195e18d959591959606a1b6044820152606401610490565b6108958383610aab565b60408051838152602081018390526001600160a01b038516917fec676e746bb0e50136b65be0a7fae9dde56596d0ee473aba38bd522505c5819f9101610753565b6108de6109fe565b6001600160a01b03811661090757604051631e4fbdf760e01b81525f6004820152602401610490565b61091081610adf565b50565b6109208383836001610ba7565b505050565b6001600160a01b038381165f908152600160209081526040808320938616835292905220545f1981101561099b578181101561098d57604051637dc7a0d960e11b81526001600160a01b03841660048201526024810182905260448101839052606401610490565b61099b84848484035f610ba7565b50505050565b6001600160a01b0383166109ca57604051634b637e8f60e11b81525f6004820152602401610490565b6001600160a01b0382166109f35760405163ec442f0560e01b81525f6004820152602401610490565b610920838383610c79565b6005546001600160a01b031633146104325760405163118cdaa760e01b8152336004820152602401610490565b610a33610c8c565b6005805460ff60a01b191690557f5db9ee0a495bf2e6ff9c91a7834c1ba4fdd244a5e8aa4e537bd38aeae4b073aa335b6040516001600160a01b03909116815260200160405180910390a1565b600554600160a01b900460ff16156104325760405163d93c066560e01b815260040160405180910390fd5b6001600160a01b038216610ad45760405163ec442f0560e01b81525f6004820152602401610490565b61064d5f8383610c79565b600580546001600160a01b038381166001600160a01b0319831681179093556040519116919082907f8be0079c531659141344cd1fd0a4f28419497f9722a3daafe3b4186f6b6457e0905f90a35050565b610b38610a80565b6005805460ff60a01b1916600160a01b1790557f62e78cea01bee320cd4e420270b5ea74000d11b0c9f74754ebdbfc544b05a258610a633390565b6001600160a01b038216610b9c57604051634b637e8f60e11b81525f6004820152602401610490565b61064d825f83610c79565b6001600160a01b038416610bd05760405163e602df0560e01b81525f6004820152602401610490565b6001600160a01b038316610bf957604051634a1406b160e11b81525f6004820152602401610490565b6001600160a01b038085165f908152600160209081526040808320938716835292905220829055801561099b57826001600160a01b0316846001600160a01b03167f8c5be1e5ebec7d5bd14f71427d1e84f3dd0314c0f7b2291e5b200ac8c7c3b92584604051610c6b91815260200190565b60405180910390a350505050565b610c81610a80565b610920838383610cb6565b600554600160a01b900460ff1661043257604051638dfc202b60e01b815260040160405180910390fd5b6001600160a01b038316610ce0578060025f828254610cd59190611066565b90915550610d509050565b6001600160a01b0383165f9081526020819052604090205481811015610d325760405163391434e360e21b81526001600160a01b03851660048201526024810182905260448101839052606401610490565b6001600160a01b0384165f9081526020819052604090209082900390555b6001600160a01b038216610d6c57600280548290039055610d8a565b6001600160a01b0382165f9081526020819052604090208054820190555b816001600160a01b0316836001600160a01b03167fddf252ad1be2c89b69c2b068fc378daa952ba7f163c4a11628f55a4df523b3ef83604051610dcf91815260200190565b60405180910390a3505050565b5f81518084525f5b81811015610e0057602081850181015186830182015201610de4565b505f602082860101526020601f19601f83011685010191505092915050565b602081525f610e316020830184610ddc565b9392505050565b80356001600160a01b0381168114610e4e575f80fd5b919050565b5f8060408385031215610e64575f80fd5b610e6d83610e38565b946020939093013593505050565b5f805f60608486031215610e8d575f80fd5b610e9684610e38565b9250610ea460208501610e38565b9150604084013590509250925092565b5f60208284031215610ec4575f80fd5b610e3182610e38565b634e487b7160e01b5f52604160045260245ffd5b5f805f60608486031215610ef3575f80fd5b610efc84610e38565b925060208401359150604084013567ffffffffffffffff80821115610f1f575f80fd5b818601915086601f830112610f32575f80fd5b813581811115610f4457610f44610ecd565b604051601f8201601f19908116603f01168101908382118183101715610f6c57610f6c610ecd565b81604052828152896020848701011115610f84575f80fd5b826020860160208301375f6020848301015280955050505050509250925092565b5f8060408385031215610fb6575f80fd5b610fbf83610e38565b9150610fcd60208401610e38565b90509250929050565b5f805f60608486031215610fe8575f80fd5b610ff184610e38565b95602085013595506040909401359392505050565b600181811c9082168061101a57607f821691505b60208210810361103857634e487b7160e01b5f52602260045260245ffd5b50919050565b6020808252600e908201526d139bdd08185d5d1a1bdc9a5e995960921b604082015260600190565b808201808211156103f957634e487b7160e01b5f52601160045260245ffd5b828152604060208201525f61109d6040830184610ddc565b94935050505056fea26469706673582212208b0496e619c6f163c2cbeada55122f6d8abdddd81331a9a2972fd78d68380c8b64736f6c63430008180033","linkReferences":{}},"methodIdentifiers":{"MAX_SUPPLY()":"32cb6b0c","allowance(address,address)":"dd62ed3e","approve(address,uint256)":"095ea7b3","balanceOf(address)":"70a08231","buildingContract()":"ec33e5a2","burn(address,uint256)":"9dc29fac","decimals()":"313ce567","gameController()":"f68256a8","mint(address,uint256)":"40c10f19","mintFromGeneration(address,uint256,uint256)":"e5619888","name()":"06fdde03","owner()":"8da5cb5b","pause()":"8456cb59","paused()":"5c975abb","renounceOwnership()":"715018a6","setBuildingContract(address)":"47e81c5f","setGameController(address)":"a56d6340","spendEnergy(address,uint256,string)":"a040f292","symbol()":"95d89b41","totalSupply()":"18160ddd","transfer(address,uint256)":"a9059cbb","transferFrom(address,address,uint256)":"23b872dd","transferOwnership(address)":"f2fde38b","unpause()":"3f4ba83a"},"id":44}